:020000040000FA
:060000007BEF0EF0120080
:0A00060001005E1D00006000000014
:0400100049000000A3
:0C001400D9CFE6FFE1CFD9FF090EE126AD
:10002000DF6A010EDB6A020EDB6A030EDB6A040E76
:10003000DB6A050EDB6A060EDB6A070EDB6A080E5A
:10004000DB6A0001A56BA66B00015D0EA55D000ECD
:10005000A6592DE2A5C0E9FFA6C0EAFF0B0EEA02F1
:10006000F3CFEAFF0B0EE902F3CFE9FFF450EA26E3
:10007000000EE926020EEA229AC0EEFF9BC0EEFFB8
:100080009CC0EEFF9DC0EEFF9EC0EEFF9FC0EEFF46
:10009000A0C0EEFFA1C0EEFFA2C0EEFFA3C0EEFF26
:1000A000A4C0EEFF0001A52B000EA623CDD70001B2
:1000B000A56BA66B0001100EA55D000EA65932E2DD
:1000C0000001A76BA86B0001100EA75D000EA859D8
:1000D00024E2A5C014F0A6C015F0050ED890143681
:1000E0001536E806FBE1000E1426070E1522020E57
:1000F000086E096AA7C00DF0A8C00EF04DEC0EF016
:1001000014500624E96E15500720EA6EEE6AED6A77
:100110000001A72B000EA823D6D70001A52B000EA7
:10012000A623C8D706018F0EFC6F000EFD6F0601D7
:100130008F0EFE6F000EFF6F07018F0E006F000E17
:10014000016F000095EC05F0100EE66E270EE66ECE
:1001500047EC06F0E552E552F90E816E010EE66EAF
:1001600097EC0EF0E552050EE66E1EDAE552F3CF7F
:1001700066F0F4CF67F0010EE66E97EC0EF0E552F4
:10018000090EE66E11DAE552F3CF68F0F4CF69F0AC
:10019000010EE66E97EC0EF0E552010EE66E04DA03
:1001A000E552F3CF6AF0F4CF6BF08168000178512B
:1001B00079110CE000017A517B1108E0FA0E000180
:1001C0007C6F7D6BD70E00017E6F7F6B00017D51D0
:1001D00000016719E8AE02D0673507D0665100010B
:1001E0007C5D0001675100017D5911E200016651FB
:1001F0000001785D146E795100016755156ED89035
:10020000155004E6FA0E145C000E155814E38168CC
:10021000880EE66E130EE66E47EC06F0E552E552E8
:10022000F90E816E0001616B0001010E656FE66AD7
:1002300019D9E5524DD000017F5100016919E8AE8E
:1002400002D0693507D0685100017E5D0001695117
:1002500000017F5911E20001685100017A5D146EBE
:100260007B5100016955156ED890155004E6FA0EC1
:10027000145C000E155813E38168880EE66E130EA9
:10028000E66E47EC06F0E552E552F90E816E00018C
:10029000626B0001656BE66AE5D8E55219D0000192
:1002A000D8906B5104E6AC0E6A5D030E6B5910E3F7
:1002B0008168880EE66E130EE66E47EC06F0E55296
:1002C000E5520001010E636F010EE66ECBD8E552D8
:1002D0002BD874C078F075C079F076C07AF077C00A
:1002E0007BF070C074F071C075F072C076F073C0AE
:1002F00077F06CC070F06DC071F06EC072F06FC0BE
:1003000073F066C06CF067C06DF068C06EF069C0D5
:100310006FF022D7090EE15C02E2E16AE552E16E7C
:10032000E552E7CFD9FF12000001D890675104E6EB
:100330002A0E665D030E67590EE3D890675104E6F6
:100340002A0E665D030E6759010EE66E200EE66EFC
:10035000010EE66E15D0D890695104E68A0E685DEC
:10036000020E69591BE3D890695104E68A0E685D54
:10037000020E69590AE3010EE66E200EE66EE66A89
:100380000ED8E552E552E5521200010EE66E200E3F
:10039000E66EE66A04D8E552E552E5521200D9CF7E
:1003A000E6FFE1CFD9FF8168E8DBE2DBF90E816E81
:1003B000FE0EDB0429E1FC0EDB5003E1F70E816E3B
:1003C00002D0FD0E816EFD0EDB50D65C1CE2D750D4
:1003D000146E156AD890155004E6FF0E145C000EDA
:1003E000155811E2FD0EDB50CE5C0DE2CF50166EBB
:1003F000176AD890175004E6FF0E165C000E1758C7
:1004000002E20000E0D728D0FC0EDB5003E1FE0E34
:10041000816E02D0FB0E816EFD0EDB50D65C1CE2BD
:10042000D750146E156AD890155004E6FF0E145C70
:10043000000E155811E2FD0EDB50CE5C0DE2CF50E0
:10044000166E176AD890175004E6FF0E165C000E61
:10045000175802E20000E0D7F90E816EE552E7CFAF
:10046000D9FF1200D9CFE6FFE1CFD9FF020EE12676
:10047000010EDB6AFE0EDB5039E10001650502E189
:100480001A0E01D0240EE66EE66AC0D8E552E55297
:10049000880EE66E130EE66E47EC06F0E552E55266
:1004A000010EDB6A050EF36E010EDBCFF4FFF35095
:1004B000F45C10E20A0EE66E97EC0EF0E552010EC7
:1004C000E66E72D8E552F3CF6AF0F4CF6BF0010E0E
:1004D000DB2AE8D700016B3504E26A515E08010EA1
:1004E0006B5502E3636B02D0010E636F8168FE0EF1
:1004F000DB5005E00001010E616F636F626F3DDB51
:1005000062C0E6FF63C0E6FF61C0E6FF79DBE66E2E
:100510007FEC06F0E552E552E552E552DF6EDFCFA3
:10052000E6FF33DAE55200016C6B6D6B6E6B6F6B3F
:10053000706B716B726B736B746B756B766B776BC7
:10054000786B796B7A6B7B6B7C697D697E697F697F
:10055000010E616F626F636B0BDB0001806B816B5F
:10056000826B836B8168880EE66E130EE66E8FDBFE
:10057000E552E552070EE66EE66A48D8E552E552C6
:100580008168880EE66E130EE66E81DBE552E55259
:10059000F90E816E020EE15C02E2E16AE552E16E63
:1005A000E552E7CFD9FF1200D9CFE6FFE1CFD9FF5F
:1005B000020EE126C26AA10EC16EFE0EDB50C26EB3
:1005C000E66A97EC0EF0E552020EC210C26EC2A2AD
:1005D00002D00000FCD7A2EC0EF0F3CFDEFFF4CF88
:1005E000DDFFABEC0EF0DECF14F0DDCF15F014C064
:1005F000F3FF15C0F4FF00D0020EE15C02E2E16AF5
:10060000E552E16EE552E7CFD9FF1200D9CFE6FF00
:10061000E1CFD9FF040EE126DE6ADD6A020EDB6A55
:10062000030EDB6AAADAA4DAF90E816E0001606BB0
:1006300000016051146E156AFD0EDBCF16F0FE0E40
:10064000DBCF17F015501718E8AE02D0173404D0DE
:100650001650145C1750155801E330D18168050E0F
:10066000E66EA2DFE552F3CF66F0F4CF67F0F90E45
:10067000816E090EE66E98DFE552F3CF68F0F4CF95
:1006800069F000016051050845E3D950FD0FE96E9E
:10069000FF0EDA20EA6E120EEE1801E1ED500BE0CB
:1006A000D950FD0FE96EFF0EDA20EA6E0D0EEE183E
:1006B00031E1ED502FE1673513E266519008010EEC
:1006C00067550EE26651785D146E79516755156E67
:1006D000D890E85004E6FA0E145C000E155802E3B8
:1006E00061054DE0693513E268516D08010E6955E9
:1006F0000EE268517A5D146E7B516955156ED89083
:10070000E85004E6FA0E145C000E155868E3620522
:1007100066E159D06051050801E381D060510708B6
:1007200001E27DD0D950FD0FE96EFF0EDA20EA6EAE
:10073000240EEE1801E1ED500BE0D950FD0FE96EEB
:10074000FF0EDA20EA6E1A0EEE1869E1ED5067E14D
:10075000673513E26651C208010E67550EE2665115
:10076000785D146E79516755156ED890E85004E69F
:10077000FA0E145C000E15580FE361050DE1816857
:10078000880EE66E130EE66E82DAE552E552F90E39
:10079000816E0001616B23D0693513E268519F08B7
:1007A000010E69550EE268517A5D146E7B516955F0
:1007B000156ED890E85004E6FA0E145C000E155839
:1007C0000EE362050CE18168880EE66E130EE66E9C
:1007D0005EDAE552E552F90E816E0001626B74C07B
:1007E00078F075C079F076C07AF077C07BF070C091
:1007F00074F071C075F072C076F073C077F06CC0A1
:1008000070F06DC071F06EC072F06FC073F066C0B2
:100810006CF067C06DF068C06EF069C06FF01B0EC1
:10082000D65C01E205D7602B1B0ED65CD66E020E9D
:10083000DB6A030EDB6A010EE66E97EC0EF0E55202
:10084000010EE66EB1DEE552020EF3CFDBFF030EC2
:10085000F4CFDBFF020EDBCF14F0030EDBCF15F07D
:10086000DECF16F0DDCF17F01650145C1750155878
:1008700001E2DED6020EDBCF14F0030EDBCF15F063
:10088000AC0E145C030E155807E38168020EDBCF33
:10089000DEFFDBCFDDFF12D0020EDBCF14F0030E44
:1008A000DBCF15F0000E145C040E155801E3C0D622
:1008B000020EDBCFDEFFDBCFDDFFBAD68168D95079
:1008C000FD0FE96EFF0EDA20EA6E0D0EEE1801E163
:1008D000ED500BE0D950FD0FE96EFF0EDA20EA6E05
:1008E000120EEE1847E1ED5045E1010EE66E97EC71
:1008F0000EF0E552010EE66E57DEE552020EF3CF22
:10090000DBFF030EF4CFDBFFDECF14F0DDCF15F0FD
:10091000260E145C020E15582DE3DECF16F0DDCF47
:1009200017F0AC0E165C030E175824E20001010EFE
:10093000636FF90E816EDECF14F0DDCF15F0AC0ED3
:10094000145C030E155815E2010EE66E97EC0EF0DE
:10095000E552010EE66E28DEE552020EF3CFDBFF14
:10096000030EF4CFDBFF020EDBCFDEFFDBCFDDFFBC
:10097000E2D781688168040EE15C02E2E16AE55237
:10098000E16EE552E7CFD9FF1200D9CFE6FFE1CF04
:10099000D9FF070EE126A20EDF6EDE52010EDD6EDC
:1009A000020EDB6A030EDB6A040EDB6A050EDB6AED
:1009B000060EDB6ADDD8FE0EDB50030802E1EA0E0C
:1009C0000DD0FE0EDB0409E0FE0EDB50020808E14C
:1009D000DE52020EDD6EB00EDF6EF50E816E03D0BC
:1009E000F90E816E98D0020EDB6A010EDB50F36EB9
:1009F000020EDBCFF4FFF350F45C01E38BD0D00E9A
:100A0000E66E97EC0EF0E552030EDBCF14F0040E09
:100A1000DBCF15F0DF50000115AE02D0D89003D027
:100A2000145C000E155826E2050EDBCF16F0060EFC
:100A3000DBCF17F0DF5017AE02D0D89003D0165C92
:100A4000000E175817E2D650E66ED950030FE96E24
:100A5000DACFEAFFE552E750EE6EED6ACE50E66E71
:100A6000D950050FE96EDACFEAFFE552E750EE6E96
:100A7000ED6ACAD7030EDB6A040EDB6A050EDB6A79
:100A8000060EDB6A75D8D00EE66E97EC0EF0E552D6
:100A9000030EDBCF14F0040EDBCF15F0DF500001A6
:100AA00015AE02D0D89003D0145C000E155826E283
:100AB000050EDBCF16F0060EDBCF17F0DF5017AEBA
:100AC00002D0D89003D0165C000E175817E2D6500B
:100AD000E66ED950030FE96EDACFEAFFE552E75030
:100AE000EE6EED6ACE50E66ED950050FE96EDACFA4
:100AF000EAFFE552E750EE6EED6ACAD7030EDB6AF5
:100B0000040EDB6A050EDB6A060EDB6A31D8020EC4
:100B1000DB2A6BD78168070EE15C02E2E16AE552ED
:100B2000E16EE552E7CFD9FF12008F0ED3147009A2
:100B3000D36E550EA76EAA0EA76E0E01BF6B0C0EDC
:100B4000E46F010EBF6FB80ED56E4C0E9A6E870E15
:100B5000CD6E936A0F01380E486F070E926E010E2C
:100B6000486F030E946E806A816A826AB8EF05F05E
:100B7000D76AD66ACF6ACE6A1200D9CFE6FFE1CF34
:100B8000D9FF020EE126DE6ADD6A010EE66E89EC0F
:100B90000EF0E552D650156AE85000018027155036
:100BA0008123D750DE6EDD6ADECF14F0DDCF15F085
:100BB00014C015F0146A1450802715508123DE6A82
:100BC000DD6ACE50146E156AE850822715508323D3
:100BD000CF50DE6EDD6ADECF14F0DDCF15F014C02D
:100BE00015F0146A1450822715508323020EE15C1D
:100BF00002E2E16AE552E16EE552E7CFD9FF120069
:100C0000D9CFE6FFE1CFD9FFE652DF6A0001DE0E61
:100C1000825D030E835906E3DF2ADE0E825F030E38
:100C2000835BF4D7DF50146E156AD890155004E634
:100C3000BD0E145C010E155801E3DF2ADF50E552AA
:100C4000E552E7CFD9FF1200806AF40EE66E010E7E
:100C5000E66E1DD8E552E552280E806EF40EE66E63
:100C6000010EE66E14D8E552E552806AF40EE66E87
:100C7000010EE66E0CD8E552E552280E806EF40E99
:100C8000E66E010EE66E03D8E552E5521200D9CFAA
:100C9000E6FFE1CFD9FF030EE126DE6ADD6ADECF93
:100CA00014F0DDCF15F0FD0EDBCF16F0FE0EDBCF1E
:100CB00017F01650145C1750155817E2020EDB6A35
:100CC000020EDB50146E156AD890155004E6A50E7E
:100CD000145C000E155804E20000020EDB2AF0D767
:100CE000DF2A010E01E3DB2ADAD7030EE15C02E220
:100CF000E16AE552E16EE552E7CFD9FF1200D9CFA4
:100D0000E6FFE1CFD9FF0E0EE126630EDF6EDE5265
:100D1000DD6EF36E020EF3CFDBFF030EDB6A040E13
:100D2000DB6A050EDB6A020E00018A25E66EDEEC48
:100D30000CF0E552E76E060EE7CFDBFF070EDB6A2D
:100D400000018E0507E1FE0EDB5004E18E6B010E03
:100D5000ACEF0CF0FE0EDB5003E1040EACEF0CF038
:100D60008E5101E0F3D3FCC6E9FFFDC6EAFF010E98
:100D7000EB50E76E030EE7CFDBFF020EEB50E76EA2
:100D8000040EE7CFDBFF030EDB50F80806E0040E8D
:100D9000DB50F80802E0FE0EDB06010E8A1922E1A4
:100DA0008B5120E1FCC6E9FFFDC6EAFF020EEB50C5
:100DB000146EE83410E3FE0EDBCF15F0FCC6E9FF3D
:100DC000FDC6EAFF020EEB50FF0DF350D88015541C
:100DD00002E2FE0EDB2A040EDBCFE7FFFE0EDB5045
:100DE000E7262BD0030E8A192AE18B5128E1FCC695
:100DF000E9FFFDC6EAFF020EEB50146E000EE76E2F
:100E00001418E8AE02D0143403D0E750D88014543C
:100E10000EE2FE0EDBCF15F0FCC6E9FFFDC6EAFFD1
:100E2000020EEB50D880155402E2FE0EDB2A040EAF
:100E3000DBCFE7FFFE0EDB50E75E040E4FD0020E65
:100E40008A1922E18B5120E1FCC6E9FFFDC6EAFFC9
:100E5000010EEB50146EE83410E3FE0EDBCF15F0FC
:100E6000FCC6E9FFFDC6EAFF010EEB50FF0DF35093
:100E7000D880155402E2FE0EDB2A030EDBCFE7FF1B
:100E8000FE0EDB50E72629D08A518B1129E1FCC6E2
:100E9000E9FFFDC6EAFF010EEB50146E000EE76E8F
:100EA0001418E8AE02D0143403D0E750D88014549C
:100EB0000EE2FE0EDBCF15F0FCC6E9FFFDC6EAFF31
:100EC000010EEB50D880155402E2FE0EDB2A030E11
:100ED000DBCFE7FFFE0EDB50E75E030EE7CFDBFF65
:100EE000FCC6E9FFFDC6EAFFEE52030EDBCFEFFFC3
:100EF000FCC6E9FFFDC6EAFF020EE926000EEA2263
:100F0000040EDBCFEFFF030EDBCF14F0000EE76E15
:100F10001418E8AE02D0143403D0E750D88014542B
:100F200027E2040EDBCF15F0000EE76E1518E8AED1
:100F300002D0153403D0E750D880155419E2030EBF
:100F4000DB50070F146E156A14BE1568050ED89095
:100F500014361536E806FBE1000E1426070E15229E
:100F6000040EDB50070F166E176A16AE68D04DD010
:100F7000030EDBCF14F0000EE76E1418E8AE02D0BB
:100F8000143403D0E750D880145419E2030EDB5018
:100F9000070F146E156A14BE1568050ED890143626
:100FA0001536E806FBE1000E1426070E1522040E86
:100FB000DB50080F166E176A16AE41D026D0040E0D
:100FC000DBCF14F0000EE76E1418E8AE02D0143434
:100FD00003D0E750D88014541AE2030EDB50080FF8
:100FE000146E156A14BE1568050ED89014361536A1
:100FF000E806FBE1000E1426070E1522040EDB5056
:10100000070F166E176A16AE1AD0176818D0030E9F
:10101000DB50080F146E156A14BE1568050ED890C3
:1010200014361536E806FBE1000E1426070E1522CD
:10103000040EDB50080F166E176A16BE1768D8909C
:101040001636173614501624E96E15501720EA6E1E
:10105000FCC6EEFFFDC6EDFFFD0EDB5001E0C1D08A
:10106000030E00018A25E66EDEEC0CF0E552E66E1A
:10107000D950080FE96EDACFEAFFE552E750EE6E7D
:10108000ED6AD950080FE96EDACFEAFFEE50ED10A5
:1010900020E1040EDBCFE6FF030EDBCFE6FFE66ABE
:1010A000F7EC0CF0E552E552E552F3CF14F0F4CF33
:1010B00015F0FCC6E9FFFDC6EAFF030EF3CFEBFF18
:1010C000040E15C0EBFFFCC6E9FFFDC6EAFF030EE8
:1010D0007FD0D950080FE96EDACFEAFF010EEE1883
:1010E00023E1ED5021E1040EDBCFE6FF030EDBCF61
:1010F000E6FF010EE66EF7EC0CF0E552E552E55224
:10110000F3CF14F0F4CF15F0FCC6E9FFFDC6EAFFFB
:10111000050EF3CFEBFF060E15C0EBFFFCC6E9FF93
:10112000FDC6EAFF050E54D0D950080FE96EDACF9C
:10113000EAFF030EEE1822E1ED5020E1040EDBCFB2
:10114000E6FF030EDBCFE6FFE66EF7EC0CF0E552B0
:10115000E552E552F3CF14F0F4CF15F0FCC6E9FFE9
:10116000FDC6EAFF090EF3CFEBFF0A0E15C0EBFF39
:10117000FCC6E9FFFDC6EAFF090E2AD0D950080FC8
:10118000E96EDACFEAFF020EEE182BE1ED5029E10D
:10119000040EDBCFE6FF030EDBCFE6FF020EE66EAA
:1011A000F7EC0CF0E552E552E552F3CF14F0F4CF32
:1011B00015F0FCC6E9FFFDC6EAFF070EF3CFEBFF13
:1011C000080E15C0EBFFFCC6E9FFFDC6EAFF070EDF
:1011D000E926000EEA22EE50EFCFEAFFE96EEFCFEC
:1011E000DFFFFC0EDB5001E0BBD08AC0E6FFE6DB90
:1011F000E552E66ED9500A0FE96EDACFEAFFE55202
:10120000E750EE6EED6AD9500A0FE96EDACFEAFFC9
:10121000EE50ED101FE1040EDBCFE6FF030EDBCF37
:10122000E6FFE66AE4DBE552E552E552F3CF14F05F
:10123000F4CF15F0FCC6E9FFFDC6EAFF030EF3CFBD
:10124000EBFF040E15C0EBFFFCC6E9FFFDC6EAFF8D
:10125000030E7CD0D9500A0FE96EDACFEAFF010EF7
:10126000EE1822E1ED5020E1040EDBCFE6FF030E85
:10127000DBCFE6FF010EE66EBADBE552E552E55242
:10128000F3CF14F0F4CF15F0FCC6E9FFFDC6EAFF7A
:10129000050EF3CFEBFF060E15C0EBFFFCC6E9FF12
:1012A000FDC6EAFF050E52D0D9500A0FE96EDACF1B
:1012B000EAFF030EEE1821E1ED501FE1040EDBCF33
:1012C000E6FF030EDBCFE6FFE66E91DBE552E5526B
:1012D000E552F3CF14F0F4CF15F0FCC6E9FFFDC6DC
:1012E000EAFF090EF3CFEBFF0A0E15C0EBFFFCC6B9
:1012F000E9FFFDC6EAFF090E29D0D9500A0FE96EB1
:10130000DACFEAFF020EEE182BE1ED5029E1040ED0
:10131000DBCFE6FF030EDBCFE6FF020EE66E67DBF8
:10132000E552E552E552F3CF14F0F4CF15F0FCC6C8
:10133000E9FFFDC6EAFF070EF3CFEBFF080E15C06D
:10134000EBFFFCC6E9FFFDC6EAFF070EE926000E2B
:10135000EA22EE50EFCFEAFFE96E020EEFCFDBFF9D
:10136000FB0EDB5001E0BDD0010E00018A25E66EC8
:1013700025DBE552E66ED9500C0FE96EDACFEAFFB5
:10138000E552E750EE6EED6AD9500C0FE96EDACFF8
:10139000EAFFEE50ED101FE1040EDBCFE6FF030E77
:1013A000DBCFE6FFE66A23DBE552E552E552F3CFF9
:1013B00014F0F4CF15F0FCC6E9FFFDC6EAFF030EFA
:1013C000F3CFEBFF040E15C0EBFFFCC6E9FFFDC633
:1013D000EAFF030E7CD0D9500C0FE96EDACFEAFF9A
:1013E000010EEE1822E1ED5020E1040EDBCFE6FF06
:1013F000030EDBCFE6FF010EE66EF9DAE552E552A9
:10140000E552F3CF14F0F4CF15F0FCC6E9FFFDC6AA
:10141000EAFF050EF3CFEBFF060E15C0EBFFFCC68F
:10142000E9FFFDC6EAFF050E52D0D9500C0FE96E58
:10143000DACFEAFF030EEE1821E1ED501FE1040EB2
:10144000DBCFE6FF030EDBCFE6FFE66ED0DAE55238
:10145000E552E552F3CF14F0F4CF15F0FCC6E9FFE6
:10146000FDC6EAFF090EF3CFEBFF0A0E15C0EBFF36
:10147000FCC6E9FFFDC6EAFF090E29D0D9500C0FC2
:10148000E96EDACFEAFF020EEE182BE1ED5029E10A
:10149000040EDBCFE6FF030EDBCFE6FF020EE66EA7
:1014A000A6DAE552E552E552F3CF14F0F4CF15F089
:1014B000FCC6E9FFFDC6EAFF070EF3CFEBFF080EFF
:1014C00015C0EBFFFCC6E9FFFDC6EAFF070EE926E3
:1014D000000EEA22EE50EFCFEAFFE96E010EEFCFE9
:1014E000DBFF060EDB5009E1FCC6E9FFFDC6EAFFA3
:1014F000030EFEC6EBFF040E26D0060EDB0409E148
:10150000FCC6E9FFFDC6EAFF050EFEC6EBFF060EB0
:101510001AD0060EDB50030809E1FCC6E9FFFDC640
:10152000EAFF090EFEC6EBFF0A0E0DD0060EDB50D9
:10153000020801E039D1FCC6E9FFFDC6EAFF070E4B
:10154000FEC6EBFF080EFFC6EBFF2ED18A518B11B2
:1015500045E1FCC6E9FFFDC6EAFF030EE926000EE1
:10156000EA22EE50ED100FE0FCC6E9FFFDC6EAFFEF
:10157000030EE926000EEA22EE50EFCFEAFFE96EF5
:10158000020EEFCFDBFFFCC6E9FFFDC6EAFF090E46
:10159000E926000EEA22EE50ED100EE0FCC6E9FF4F
:1015A000FDC6EAFF090EE926000EEA22EE50EFCF53
:1015B000EAFFE96EEFCFDFFFFCC6E9FFFDC6EAFFF9
:1015C000050EE926000EEA22EE50ED1001E1EBD007
:1015D000FCC6E9FFFDC6EAFF050EDBD0010E8A1945
:1015E00047E18B5145E1FCC6E9FFFDC6EAFF050E68
:1015F000E926000EEA22EE50ED100FE0FCC6E9FFEE
:10160000FDC6EAFF050EE926000EEA22EE50EFCFF6
:10161000EAFFE96E020EEFCFDBFFFCC6E9FFFDC675
:10162000EAFF030EE926000EEA22EE50ED100EE06E
:10163000FCC6E9FFFDC6EAFF030EE926000EEA221A
:10164000EE50EFCFEAFFE96EEFCFDFFFFCC6E9FF18
:10165000FDC6EAFF070EE926000EEA22EE50ED1065
:1016600001E1A1D0FCC6E9FFFDC6EAFF070E91D05B
:10167000020E8A1946E18B5144E1FCC6E9FFFDC622
:10168000EAFF070EE926000EEA22EE50ED100FE009
:10169000FCC6E9FFFDC6EAFF070EE926000EEA22B6
:1016A000EE50EFCFEAFFE96E020EEFCFDBFFFCC694
:1016B000E9FFFDC6EAFF050EE926000EEA22EE501C
:1016C000ED100EE0FCC6E9FFFDC6EAFF050EE926B7
:1016D000000EEA22EE50EFCFEAFFE96EEFCFDFFF18
:1016E000FCC6E9FFFDC6EAFF090EE926000EEA2264
:1016F000EE50ED1058E0FCC6E9FFFDC6EAFF090E0A
:1017000048D0030E8A194FE18B514DE1FCC6E9FF29
:10171000FDC6EAFF090EE926000EEA22EE50ED10A2
:101720000FE0FCC6E9FFFDC6EAFF090EE926000E40
:10173000EA22EE50EFCFEAFFE96E020EEFCFDBFFB9
:10174000FCC6E9FFFDC6EAFF070EE926000EEA2205
:10175000EE50ED100EE0FCC6E9FFFDC6EAFF070EF5
:10176000E926000EEA22EE50EFCFEAFFE96EEFCF56
:10177000DFFFFCC6E9FFFDC6EAFF030EE926000E07
:10178000EA22EE50ED100FE0FCC6E9FFFDC6EAFFCD
:10179000030EE926000EEA22EE50EFCFEAFFE96ED3
:1017A000010EEFCFDBFF8E6B020EDB50630812E100
:1017B000630EDF5C0FE1010EDB5063080BE1FCC63A
:1017C000E9FFFDC6EAFF630EEF6E0001010E8E6FAA
:1017D000020E3FD0010EDB50DF5C04E2020EDB5054
:1017E000DF5C34E3DF50F36E010EDBCFF4FFF35028
:1017F000F45C09E2020EDB50F36E010EDBCFF4FF66
:10180000F350F45C1BE3DF50F36E020EDBCFF4FF0A
:10181000F350F45C0CE2010EDB50F36E020EDBCFF2
:10182000F4FFF350F45C03E2070EDB6A16D0010EFE
:10183000DB50F36E020EDB50F35C02E1010E09D0C7
:10184000DF50F36E020EDB50F35C02E1030E01D0B9
:10185000010EF36E070EF3CFDBFFDB50146E156A3B
:1018600000018A511424E66EA9D8E552000913E15B
:10187000FCC6FEF6FDC6FFF6FCC6E9FFFDC6EAFFA4
:10188000030EE926000EEA22EECFFCF6EDCFFDF6C0
:1018900000018A6B5BD0070EDB50146E156A0001E5
:1018A0008A511424E66E8AD8E552010812E1FCC67A
:1018B000FEF6FDC6FFF6FCC6E9FFFDC6EAFF050E13
:1018C000E926000EEA22EECFFCF6EDCFFDF6010E82
:1018D0003BD0070EDB50146E156A00018A511424A8
:1018E000E66E6CD8E552020812E1FCC6FEF6FDC6B3
:1018F000FFF6FCC6E9FFFDC6EAFF070EE926000E6B
:10190000EA22EECFFCF6EDCFFDF6020E1DD0070E5B
:10191000DB50146E156A00018A511424E66E4ED80D
:10192000E552030814E1FCC6FEF6FDC6FFF6FCC650
:10193000E9FFFDC6EAFF090EE926000EEA22EECF16
:10194000FCF6EDCFFDF6030E00018A6F8B6B070EE0
:10195000DB28E66E33D8E552146E0E0EE15C02E22F
:10196000E16AE552E16E1450E552E7CFD9FF12006B
:10197000D9CFE6FFE1CFD9FFFE0EDBCF14F0143450
:1019800006E3FE0EDB50FF0DFE0EF3CFDBFFFD0E78
:10199000DBCF14F0143406E3FD0EDB50FF0DFD0E1B
:1019A000F3CFDBFFFD0EDBCFE6FFFE0EDB50E55293
:1019B000E724FF0FE552E7CFD9FF1200D9CFE6FFAA
:1019C000E1CFD9FFFE0EDB5004080BE2040E146ECB
:1019D000FE0EDBCFE7FF1450E75EFE0EE7CFDBFF26
:1019E000F1D7FE0EDB50E552E7CFD9FF1200D9CF79
:1019F000E6FFE1CFD9FF0F0EE126FD0EDB50DF6ED3
:101A0000FC0EDB50E76E010EE7CFDBFF020E9AC043
:101A1000DBFF030E9BC0DBFF040E9CC0DBFF050E4B
:101A20009DC0DBFF060E9EC0DBFF070E9FC0DBFFE5
:101A3000080EA0C0DBFF090EA1C0DBFF0A0EA2C08A
:101A4000DBFF0B0EA3C0DBFF0C0EA4C0DBFF8CC0C2
:101A500014F08DC015F00B0E1502F3CF15F0140223
:101A6000F3CF14F0F4501526000E1426020E1522A2
:101A70000D0E14C0DBFF0E0E15C0DBFFFE0EDB509B
:101A800005E1DF06DF5021E1DF681FD0FE0EDB0439
:101A900008E1010EDB2ADB5018E1DE52010EDD6E9B
:101AA00014D0FE0EDB50020806E1DF2ADF500DE104
:101AB000010EDF6E0AD0FE0EDB50030806E1010EB8
:101AC000DB06DB5002E1010EDB68010EDBCFE6FF37
:101AD000DFCFE6FF4DDFE552E552E76E020EE7CFBE
:101AE000DBFF030EDFCFDBFF010EDB50E76E040EE2
:101AF000E7CFDBFFFE0EDB5005E1090EFCC6DBFF86
:101B00000A0E19D0FE0EDB0405E10B0EFCC6DBFF4E
:101B10000C0E11D0FE0EDB50020805E1050EFCC6CE
:101B2000DBFF060E08D0FE0EDB50030806E1070EB1
:101B3000FCC6DBFF080EFDC6DBFF8CC0E9FF8DC0D5
:101B4000EAFF0B0EEA02F3CFEAFFE902F3CFE9FF67
:101B5000F450EA26000EE926020EEA22020EDBCF3E
:101B6000EEFF030EDBCFEEFF040EDBCFEEFF050E24
:101B7000DBCFEEFF060EDBCFEEFF070EDBCFEEFF77
:101B8000080EDBCFEEFF090EDBCFEEFF0A0EDBCF38
:101B9000EEFF0B0EDBCFEEFF0C0EDBCFEEFF8CC0AB
:101BA00014F08DC015F00B0E1502F3CF15F01402D2
:101BB000F3CF14F0F4501526000E1426020E152251
:101BC0000D0E14C0DBFF0E0E15C0DBFF00018C2BC9
:101BD000000E8D230D0EDBCF14F00E0EDBCF15F0B3
:101BE00014C0F3FF15C0F4FF0F0EE15C02E2E16ADE
:0C1BF000E552E16EE552E7CFD9FF12008C
:041BFC00060EF66E6D
:101C0000000EF76E000EF86E00010900F550AE6F81
:101C10000900F550AF6F03E1AE6701D03DD0090078
:101C2000F550A96F0900F550AA6F0900F550AB6F88
:101C300009000900F550E96E0900F550EA6E090047
:101C400009000900F550AC6F0900F550AD6F0900AF
:101C50000900F6CFB0F0F7CFB1F0F8CFB2F0A9C0DD
:101C6000F6FFAAC0F7FFABC0F8FF0001AC5302E1DA
:101C7000AD5307E00900F550EE6EAC07F8E2AD0792
:101C8000F9D7B0C0F6FFB1C0F7FFB2C0F8FF00014E
:0A1C9000AE07000EAF5BBFD71200D5
:061C9A0008C012F0085022
:101CA0000D02F4CF07F0F3CF06F009500E02F4CF87
:101CB00009F0F3CF08F00D02F3500726F450082284
:101CC000E86A092212500E02F3500726F450082247
:061CD000E86A0922000C85
:0A1CD600B00EF36E00EE00F00E0EEB
:101CE00001D81200EA6002D0EE6AFCD7F350E96036
:061CF0001200EE6AFCD7B1
:0A1CF6001DEE00F02DEE00F0F86A7C
:101D0000019CFEEC0DF0AEEC0EF00AEC00F0FBD7FF
:021D10001200BF
:0E1D1200FF0EE350186E1B0E00D001D0200E05
:0E1D2000E76EE72EFED7182EFAD700D012007D
:021D2E00FF0EA6
:101D3000E350E84E1200000000D000D000D0E82EA2
:041D4000FAD71200BC
:0C1D4400C450176E166AC3501610F36EE0
:061D500017C0F4FF1200B1
:061D5600C2909D9C1200EA
:021D5C00120073
:021D5E00000182
:101D6000010101FF00000000000000000000000071
:101D700000000000000000000000FFFFFFFF000067
:101D8000000000000000000001000000000EF8F854
:101D90000000000000000000000000000000000043
:071DA000000000000000003C
:00000001FF
