:020000040000FA
:0600000057EF10F01200A2
:0A0006000100162100006000000058
:040010004A000000A2
:0C001400D9CFE6FFE1CFD9FF090EE126AD
:10002000DF6A010EDB6A020EDB6A030EDB6A040E76
:10003000DB6A050EDB6A060EDB6A070EDB6A080E5A
:10004000DB6A00018F0EB46F000EB56F00018F0EDA
:10005000B66F000EB76F0001A56BA66B0001640EB2
:10006000A55D000EA6592DE2A5C0E9FFA6C0EAFFD6
:100070000B0EEA02F3CFEAFF0B0EE902F3CFE9FF22
:10008000F450EA26000EE926030EEA229AC0EEFF9B
:100090009BC0EEFF9CC0EEFF9DC0EEFF9EC0EEFF3A
:1000A0009FC0EEFFA0C0EEFFA1C0EEFFA2C0EEFF1A
:1000B000A3C0EEFFA4C0EEFF0001A52B000EA623F7
:1000C000CDD70001A56BA66B0001100EA55D000E3B
:1000D000A65932E20001A76BA86B0001100EA75DC4
:1000E000000EA85924E2A5C014F0A6C015F0050E14
:1000F000D89014361536E806FBE1000E1426070EDC
:100100001522020E086E096AA7C00DF0A8C00EF0F5
:10011000C4EC0FF014500624E96E15500720EA6E67
:10012000EE6AED6A0001A72B000EA823D6D70001C6
:10013000A52B000EA623C8D707018F0E006F000E57
:10014000016F000095EC05F0100EE66E270EE66ECE
:1001500047EC06F0E552E552F90E816E010EE66EAF
:1001600073EC10F0E552050EE66E1EDAE552F3CFA1
:1001700066F0F4CF67F0010EE66E73EC10F0E55216
:10018000090EE66E11DAE552F3CF68F0F4CF69F0AC
:10019000010EE66E73EC10F0E552010EE66E04DA25
:1001A000E552F3CF6AF0F4CF6BF08168000178512B
:1001B00079110CE000017A517B1108E0FA0E000180
:1001C0007C6F7D6BD70E00017E6F7F6B00017D51D0
:1001D00000016719E8AE02D0673507D0665100010B
:1001E0007C5D0001675100017D5911E200016651FB
:1001F0000001785D146E795100016755156ED89035
:10020000155004E6FA0E145C000E155814E38168CC
:10021000880EE66E130EE66E47EC06F0E552E552E8
:10022000F90E816E0001616B0001010E656FE66AD7
:1002300019D9E5524DD000017F5100016919E8AE8E
:1002400002D0693507D0685100017E5D0001695117
:1002500000017F5911E20001685100017A5D146EBE
:100260007B5100016955156ED890155004E6FA0EC1
:10027000145C000E155813E38168880EE66E130EA9
:10028000E66E47EC06F0E552E552F90E816E00018C
:10029000626B0001656BE66AE5D8E55219D0000192
:1002A000D8906B5104E6AC0E6A5D030E6B5910E3F7
:1002B0008168880EE66E130EE66E47EC06F0E55296
:1002C000E5520001010E636F010EE66ECBD8E552D8
:1002D0002BD874C078F075C079F076C07AF077C00A
:1002E0007BF070C074F071C075F072C076F073C0AE
:1002F00077F06CC070F06DC071F06EC072F06FC0BE
:1003000073F066C06CF067C06DF068C06EF069C0D5
:100310006FF022D7090EE15C02E2E16AE552E16E7C
:10032000E552E7CFD9FF12000001D890675104E6EB
:100330002A0E665D030E67590EE3D890675104E6F6
:100340002A0E665D030E6759010EE66E200EE66EFC
:10035000010EE66E15D0D890695104E68A0E685DEC
:10036000020E69591BE3D890695104E68A0E685D54
:10037000020E69590AE3010EE66E200EE66EE66A89
:100380000ED8E552E552E5521200010EE66E200E3F
:10039000E66EE66A04D8E552E552E5521200D9CF7E
:1003A000E6FFE1CFD9FF8168E8DBE2DBF90E816E81
:1003B000FE0EDB0429E1FC0EDB5003E1F70E816E3B
:1003C00002D0FD0E816EFD0EDB50D65C1CE2D750D4
:1003D000146E156AD890155004E6FF0E145C000EDA
:1003E000155811E2FD0EDB50CE5C0DE2CF50166EBB
:1003F000176AD890175004E6FF0E165C000E1758C7
:1004000002E20000E0D728D0FC0EDB5003E1FE0E34
:10041000816E02D0FB0E816EFD0EDB50D65C1CE2BD
:10042000D750146E156AD890155004E6FF0E145C70
:10043000000E155811E2FD0EDB50CE5C0DE2CF50E0
:10044000166E176AD890175004E6FF0E165C000E61
:10045000175802E20000E0D7F90E816EE552E7CFAF
:10046000D9FF1200D9CFE6FFE1CFD9FF020EE12676
:10047000010EDB6AFE0EDB5039E10001650502E189
:100480001A0E01D0240EE66EE66AC0D8E552E55297
:10049000880EE66E130EE66E47EC06F0E552E55266
:1004A000010EDB6A050EF36E010EDBCFF4FFF35095
:1004B000F45C10E20A0EE66E73EC10F0E552010EE9
:1004C000E66E72D8E552F3CF6AF0F4CF6BF0010E0E
:1004D000DB2AE8D700016B3504E26A515E08010EA1
:1004E0006B5502E3636B02D0010E636F8168FE0EF1
:1004F000DB5005E00001010E616F636F626F3DDB51
:1005000062C0E6FF63C0E6FF61C0E6FF79DBE66E2E
:100510007FEC06F0E552E552E552E552DF6EDFCFA3
:10052000E6FF33DAE55200016C6B6D6B6E6B6F6B3F
:10053000706B716B726B736B746B756B766B776BC7
:10054000786B796B7A6B7B6B7C697D697E697F697F
:10055000010E616F626F636B0BDB0001806B816B5F
:10056000826B836B8168880EE66E130EE66E8FDBFE
:10057000E552E552070EE66EE66A48D8E552E552C6
:100580008168880EE66E130EE66E81DBE552E55259
:10059000F90E816E020EE15C02E2E16AE552E16E63
:1005A000E552E7CFD9FF1200D9CFE6FFE1CFD9FF5F
:1005B000020EE126C26AA10EC16EFE0EDB50C26EB3
:1005C000E66A73EC10F0E552020EC210C26EC2A2CF
:1005D00002D00000FCD77EEC10F0F3CFDEFFF4CFAA
:1005E000DDFF87EC10F0DECF14F0DDCF15F014C086
:1005F000F3FF15C0F4FF00D0020EE15C02E2E16AF5
:10060000E552E16EE552E7CFD9FF1200D9CFE6FF00
:10061000E1CFD9FF040EE126DE6ADD6A020EDB6A55
:10062000030EDB6AAADAA4DAF90E816E0001606BB0
:1006300000016051146E156AFD0EDBCF16F0FE0E40
:10064000DBCF17F015501718E8AE02D0173404D0DE
:100650001650145C1750155801E330D18168050E0F
:10066000E66EA2DFE552F3CF66F0F4CF67F0F90E45
:10067000816E090EE66E98DFE552F3CF68F0F4CF95
:1006800069F000016051050845E3D950FD0FE96E9E
:10069000FF0EDA20EA6E120EEE1801E1ED500BE0CB
:1006A000D950FD0FE96EFF0EDA20EA6E0D0EEE183E
:1006B00031E1ED502FE1673513E266519008010EEC
:1006C00067550EE26651785D146E79516755156E67
:1006D000D890E85004E6FA0E145C000E155802E3B8
:1006E00061054DE0693513E268516D08010E6955E9
:1006F0000EE268517A5D146E7B516955156ED89083
:10070000E85004E6FA0E145C000E155868E3620522
:1007100066E159D06051050801E381D060510708B6
:1007200001E27DD0D950FD0FE96EFF0EDA20EA6EAE
:10073000240EEE1801E1ED500BE0D950FD0FE96EEB
:10074000FF0EDA20EA6E1A0EEE1869E1ED5067E14D
:10075000673513E26651C208010E67550EE2665115
:10076000785D146E79516755156ED890E85004E69F
:10077000FA0E145C000E15580FE361050DE1816857
:10078000880EE66E130EE66E82DAE552E552F90E39
:10079000816E0001616B23D0693513E268519F08B7
:1007A000010E69550EE268517A5D146E7B516955F0
:1007B000156ED890E85004E6FA0E145C000E155839
:1007C0000EE362050CE18168880EE66E130EE66E9C
:1007D0005EDAE552E552F90E816E0001626B74C07B
:1007E00078F075C079F076C07AF077C07BF070C091
:1007F00074F071C075F072C076F073C077F06CC0A1
:1008000070F06DC071F06EC072F06FC073F066C0B2
:100810006CF067C06DF068C06EF069C06FF01B0EC1
:10082000D65C01E205D7602B1B0ED65CD66E020E9D
:10083000DB6A030EDB6A010EE66E73EC10F0E55224
:10084000010EE66EB1DEE552020EF3CFDBFF030EC2
:10085000F4CFDBFF020EDBCF14F0030EDBCF15F07D
:10086000DECF16F0DDCF17F01650145C1750155878
:1008700001E2DED6020EDBCF14F0030EDBCF15F063
:10088000AC0E145C030E155807E38168020EDBCF33
:10089000DEFFDBCFDDFF12D0020EDBCF14F0030E44
:1008A000DBCF15F0000E145C040E155801E3C0D622
:1008B000020EDBCFDEFFDBCFDDFFBAD68168D95079
:1008C000FD0FE96EFF0EDA20EA6E0D0EEE1801E163
:1008D000ED500BE0D950FD0FE96EFF0EDA20EA6E05
:1008E000120EEE1847E1ED5045E1010EE66E73EC95
:1008F00010F0E552010EE66E57DEE552020EF3CF20
:10090000DBFF030EF4CFDBFFDECF14F0DDCF15F0FD
:10091000260E145C020E15582DE3DECF16F0DDCF47
:1009200017F0AC0E165C030E175824E20001010EFE
:10093000636FF90E816EDECF14F0DDCF15F0AC0ED3
:10094000145C030E155815E2010EE66E73EC10F000
:10095000E552010EE66E28DEE552020EF3CFDBFF14
:10096000030EF4CFDBFF020EDBCFDEFFDBCFDDFFBC
:10097000E2D781688168040EE15C02E2E16AE55237
:10098000E16EE552E7CFD9FF1200D9CFE6FFE1CF04
:10099000D9FF070EE126A20EDF6EDE52010EDD6EDC
:1009A000020EDB6A030EDB6A040EDB6A050EDB6AED
:1009B000060EDB6ADDD8FE0EDB50030802E1EA0E0C
:1009C0000DD0FE0EDB0409E0FE0EDB50020808E14C
:1009D000DE52020EDD6EB00EDF6EF50E816E03D0BC
:1009E000F90E816E98D0020EDB6A010EDB50F36EB9
:1009F000020EDBCFF4FFF350F45C01E38BD0D00E9A
:100A0000E66E73EC10F0E552030EDBCF14F0040E2B
:100A1000DBCF15F0DF50000115AE02D0D89003D027
:100A2000145C000E155826E2050EDBCF16F0060EFC
:100A3000DBCF17F0DF5017AE02D0D89003D0165C92
:100A4000000E175817E2D650E66ED950030FE96E24
:100A5000DACFEAFFE552E750EE6EED6ACE50E66E71
:100A6000D950050FE96EDACFEAFFE552E750EE6E96
:100A7000ED6ACAD7030EDB6A040EDB6A050EDB6A79
:100A8000060EDB6A75D8D00EE66E73EC10F0E552F8
:100A9000030EDBCF14F0040EDBCF15F0DF500001A6
:100AA00015AE02D0D89003D0145C000E155826E283
:100AB000050EDBCF16F0060EDBCF17F0DF5017AEBA
:100AC00002D0D89003D0165C000E175817E2D6500B
:100AD000E66ED950030FE96EDACFEAFFE552E75030
:100AE000EE6EED6ACE50E66ED950050FE96EDACFA4
:100AF000EAFFE552E750EE6EED6ACAD7030EDB6AF5
:100B0000040EDB6A050EDB6A060EDB6A31D8020EC4
:100B1000DB2A6BD78168070EE15C02E2E16AE552ED
:100B2000E16EE552E7CFD9FF12008F0ED3147009A2
:100B3000D36E550EA76EAA0EA76E0E01BF6B0C0EDC
:100B4000E46F010EBF6FB80ED56E4C0E9A6E870E15
:100B5000CD6E936A0F01380E486F070E926E010E2C
:100B6000486F030E946E806A816A826AB8EF05F05E
:100B7000D76AD66ACF6ACE6A1200D9CFE6FFE1CF34
:100B8000D9FF020EE126DE6ADD6A010EE66E65EC33
:100B900010F0E552D650156AE85000018027155034
:100BA0008123D750DE6EDD6ADECF14F0DDCF15F085
:100BB00014C015F0146A1450802715508123DE6A82
:100BC000DD6ACE50146E156AE850822715508323D3
:100BD000CF50DE6EDD6ADECF14F0DDCF15F014C02D
:100BE00015F0146A1450822715508323020EE15C1D
:100BF00002E2E16AE552E16EE552E7CFD9FF120069
:100C0000D9CFE6FFE1CFD9FFE652DF6A0001DE0E61
:100C1000825D030E835906E3DF2ADE0E825F030E38
:100C2000835BF4D7DF50146E156AD890155004E634
:100C3000BD0E145C010E155801E3DF2ADF50E552AA
:100C4000E552E7CFD9FF1200806AF40EE66E010E7E
:100C5000E66E1DD8E552E552280E806EF40EE66E63
:100C6000010EE66E14D8E552E552806AF40EE66E87
:100C7000010EE66E0CD8E552E552280E806EF40E99
:100C8000E66E010EE66E03D8E552E5521200D9CFAA
:100C9000E6FFE1CFD9FF030EE126DE6ADD6ADECF93
:100CA00014F0DDCF15F0FD0EDBCF16F0FE0EDBCF1E
:100CB00017F01650145C1750155817E2020EDB6A35
:100CC000020EDB50146E156AD890155004E6A50E7E
:100CD000145C000E155804E20000020EDB2AF0D767
:100CE000DF2A010E01E3DB2ADAD7030EE15C02E220
:100CF000E16AE552E16EE552E7CFD9FF1200D9CFA4
:100D0000E6FFE1CFD9FF160EE126630EDE6EDD6A47
:100D1000F36E020EF3CFDBFF030EDB6A630EF36E9E
:100D2000040EF3CFDBFF050EDB6A060EDB6A070E4F
:100D3000DB6A080EDB6A090EDB6A0A0EDB6A0B0E41
:100D4000DB6A020E0001156A8A25146E8B5115228A
:100D5000040E0D6E0E6A14C008F015C009F071EC97
:100D60000FF005C015F00C0E04C0DBFF0D0E05C022
:100D7000DBFF0E0EDB6A0F0EDB6AB4C0E9FFB5C005
:100D8000EAFF010EEB50146E156A14BE1568060ECC
:100D900014C0DBFF070E15C0DBFFB4C0E9FFB5C010
:100DA000EAFF020EEB50146E156A14BE1568080EA9
:100DB00014C0DBFF090E15C0DBFFD950060FE96E2A
:100DC000DACFEAFFF80EEE1802E1FF0EED180DE0A3
:100DD000D950080FE96EDACFEAFFF80EEE1802E1FB
:100DE000FF0EED1802E0FE0EDB060001010E8A196F
:100DF00022E18B5120E1B4C0E9FFB5C0EAFF020E49
:100E0000EB50146EE83410E3FE0EDBCF15F0B4C0E7
:100E1000E9FFB5C0EAFF020EEB50FF0DF350D8809A
:100E2000155402E2FE0EDB2AFE0EDB50146E156A2C
:100E3000D950080F50D0030E8A1929E18B5127E1B0
:100E4000B4C0E9FFB5C0EAFF020EEB50146E000E0D
:100E5000E76E1418E8AE02D0143403D0E750D880FF
:100E600014540EE2FE0EDBCF15F0B4C0E9FFB5C09E
:100E7000EAFF020EEB50D880155402E2FE0EDB2A88
:100E8000FE0EDB50146E156AD950080F55D0020EB5
:100E90008A1929E18B5127E1B4C0E9FFB5C0EAFF07
:100EA000010EEB50146EE83410E3FE0EDBCF15F0AC
:100EB000B4C0E9FFB5C0EAFF010EEB50FF0DF350DF
:100EC000D880155402E2FE0EDB2AFE0EDB50146EB3
:100ED000156AD950060FE96EDACFEAFF1450EE26F4
:100EE0001550ED2230D08A518B112DE1B4C0E9FFAD
:100EF000B5C0EAFF010EEB50146E000EE76E141839
:100F0000E8AE02D0143403D0E750D88014540EE277
:100F1000FE0EDBCF15F0B4C0E9FFB5C0EAFF010E4D
:100F2000EB50D880155402E2FE0EDB2AFE0EDB5099
:100F3000146E156AD950060FE96EDACFEAFF145025
:100F4000EE5E1550ED5AB4C0E9FFB5C0EAFFEE52AF
:100F5000060EDBCFEFFFB4C0E9FFB5C0EAFF020E1B
:100F6000E926000EEA22080EDBCFEFFF060EDBCFEC
:100F700014F0070EDBCF15F0153425E214500008ED
:100F8000000E155420E2080EDBCF16F0090EDBCF61
:100F900017F0173418E216500008000E175413E229
:100FA000070EE76E060EDBCF14F0070EDBCF15F051
:100FB000E7501426000E1522050ED890143615366B
:100FC000E806FBE13FD0060EDBCF14F0070EDBCFC7
:100FD00015F0153418E214500008000E155413E2F1
:100FE000070EE76E060EDBCF14F0070EDBCF15F011
:100FF000E7501426000E1522050ED890143615362B
:10100000E806FBE139D0080EDBCF14F0090EDBCF88
:1010100015F015341FE214500008000E15541AE2A2
:10102000080EE76E060EDBCF14F0070EDBCF15F0CF
:10103000E7501426000E1522050ED89014361536EA
:10104000E806FBE1000E1426070E1522070EE76ED8
:10105000080E18D0080EE76E060EDBCF14F0070E50
:10106000DBCF15F0E7501426000E1522050ED890A0
:1010700014361536E806FBE1000E1426070E15227D
:10108000080EE76EDBCF16F0090EDBCF17F0E75046
:101090001626000E1722D89016361736145016242E
:1010A000E96E15501720EA6EB4C0EEFFB5C0EDFF33
:1010B000FD0EDB5001E018D1030E0001156A8A25F0
:1010C000146E8B511522040E0D6E0E6A14C008F0BA
:1010D00015C009F071EC0FF004C014F005C015F054
:1010E000100E04C0DBFF110E05C0DBFFD950100F3E
:1010F000E96EDACFEAFFEE50ED1035E1080EDBCFF6
:10110000E6FF090EDBCFE6FF060EDBCFE6FF070E9C
:10111000DBCFE6FF000EE66EE66AFAEC0DF0166E27
:10112000060EE15E1650F3CF14F0F4CF15F0B4C004
:10113000E9FFB5C0EAFF030EF3CFEBFF040E15C0C5
:10114000EBFFB4C0E9FFB5C0EAFF030EE926000ECD
:10115000EA22EE50EFCFEAFFE96EEFCF14F0156A06
:1011600014AEBED07DD0D950100FE96EDACFEAFFB1
:10117000010EEE1837E1ED5035E1080EDBCFE6FF4A
:10118000090EDBCFE6FF060EDBCFE6FF070EDBCF57
:10119000E6FF010EE66EE66AFAEC0DF0166E060E3C
:1011A000E15E1650F3CF14F0F4CF15F0B4C0E9FFB0
:1011B000B5C0EAFF050EF3CFEBFF060E15C0EBFF3F
:1011C000B4C0E9FFB5C0EAFF050EE926000EEA2229
:1011D000EE50EFCFEAFFE96EEFCF14F0156A14AED0
:1011E0007FD03ED0D950100FE96EDACFEAFF030E60
:1011F000EE1838E1ED5036E1080EDBCFE6FF090EC0
:10120000DBCFE6FF060EDBCFE6FF070EDBCFE6FF08
:10121000030EE66EE66AFAEC0DF0166E060EE15E5F
:101220001650F3CF14F0F4CF15F0B4C0E9FFB5C0F9
:10123000EAFF090EF3CFEBFF0A0E15C0EBFFB4C0B7
:10124000E9FFB5C0EAFF090EE926000EEA22EE50DA
:10125000EFCFEAFFE96EEFCF14F0156A14AE40D07D
:1012600015683ED0D950100FE96EDACFEAFF020EB2
:10127000EE183AE1ED5038E1080EDBCFE6FF090E3B
:10128000DBCFE6FF060EDBCFE6FF070EDBCFE6FF88
:10129000020EE66EE66AFAEC0DF0166E060EE15EE0
:1012A0001650F3CF14F0F4CF15F0B4C0E9FFB5C079
:1012B000EAFF070EF3CFEBFF080E15C0EBFFB4C03B
:1012C000E9FFB5C0EAFF070EE926000EEA22EE505C
:1012D000EFCFEAFFE96EEFCF14F0156A14BE156880
:1012E00014C0DEFF15C0DDFFFC0EDB5001E015D1A0
:1012F0008AC014F08BC015F0040E0D6E0E6A8AC001
:1013000008F08BC009F071EC0FF004C014F005C0B8
:1013100015F0120E04C0DBFF130E05C0DBFFD95021
:10132000120FE96EDACFEAFFEE50ED1035E1080E4C
:10133000DBCFE6FF090EDBCFE6FF060EDBCFE6FFD5
:10134000070EDBCFE6FF000EE66EE66AFAEC0DF064
:10135000166E060EE15E1650F3CF14F0F4CF15F0C2
:10136000B4C0E9FFB5C0EAFF030EF3CFEBFF040EF4
:1013700015C0EBFFB4C0E9FFB5C0EAFF030EE926D4
:10138000000EEA22EE50EFCFEAFFE96EEFCF14F045
:10139000156A14AEBCD07CD0D950120FE96EDACFEA
:1013A000EAFF010EEE1837E1ED5035E1080EDBCF14
:1013B000E6FF090EDBCFE6FF060EDBCFE6FF070EEA
:1013C000DBCFE6FF010EE66EE66AFAEC0DF0166E74
:1013D000060EE15E1650F3CF14F0F4CF15F0B4C052
:1013E000E9FFB5C0EAFF050EF3CFEBFF060E15C00F
:1013F000EBFFB4C0E9FFB5C0EAFF050EE926000E19
:10140000EA22EE50EFCFEAFFE96EEFCF14F0156A53
:1014100014AE7DD03DD0D950120FE96EDACFEAFF7D
:10142000030EEE1837E1ED5035E1080EDBCFE6FF95
:10143000090EDBCFE6FF060EDBCFE6FF070EDBCFA4
:10144000E6FF030EE66EE66AD5DB166E060EE15E7B
:101450001650F3CF14F0F4CF15F0B4C0E9FFB5C0C7
:10146000EAFF090EF3CFEBFF0A0E15C0EBFFB4C085
:10147000E9FFB5C0EAFF090EE926000EEA22EE50A8
:10148000EFCFEAFFE96EEFCF14F0156A14AE3FD04C
:1014900015683DD0D950120FE96EDACFEAFF020E7F
:1014A000EE183BE1ED5039E1080EDBCFE6FF090E07
:1014B000DBCFE6FF060EDBCFE6FF070EDBCFE6FF56
:1014C000020EE66EE66A96DB166E060EE15E1650BA
:1014D000F3CF14F0F4CF15F0B4C0E9FFB5C0EAFFC4
:1014E000070EF3CFEBFF080E15C0EBFFB4C0E9FF0A
:1014F000B5C0EAFF070EE926000EEA22EE50EFCF54
:10150000EAFFE96EEFCF14F0156A14BE1568040EF9
:1015100014C0DBFF050E15C0DBFFFB0EDB5001E046
:1015200016D1010E0001156A8A25146E8B51152201
:10153000040E0D6E0E6A14C008F015C009F071ECAF
:101540000FF004C014F005C015F0140E04C0DBFF4A
:10155000150E05C0DBFFD950140FE96EDACFEAFF94
:10156000EE50ED1034E1080EDBCFE6FF090EDBCFC5
:10157000E6FF060EDBCFE6FF070EDBCFE6FF000E31
:10158000E66EE66A37DB166E060EE15E1650F3CFA6
:1015900014F0F4CF15F0B4C0E9FFB5C0EAFF030EB4
:1015A000F3CFEBFF040E15C0EBFFB4C0E9FFB5C0ED
:1015B000EAFF030EE926000EEA22EE50EFCFEAFF23
:1015C000E96EEFCF14F0156A14AEBBD07BD0D950C2
:1015D000140FE96EDACFEAFF010EEE1836E1ED5096
:1015E00034E1080EDBCFE6FF090EDBCFE6FF060E87
:1015F000DBCFE6FF070EDBCFE6FF010EE66EE66A05
:10160000F9DA166E060EE15E1650F3CF14F0F4CF41
:1016100015F0B4C0E9FFB5C0EAFF050EF3CFEBFF4C
:10162000060E15C0EBFFB4C0E9FFB5C0EAFF050E1A
:10163000E926000EEA22EE50EFCFEAFFE96EEFCF87
:1016400014F0156A14AE7DD03DD0D950140FE96E58
:10165000DACFEAFF030EEE1837E1ED5035E1080E60
:10166000DBCFE6FF090EDBCFE6FF060EDBCFE6FFA2
:10167000070EDBCFE6FF030EE66EE66ABBDA166EF8
:10168000060EE15E1650F3CF14F0F4CF15F0B4C09F
:10169000E9FFB5C0EAFF090EF3CFEBFF0A0E15C054
:1016A000EBFFB4C0E9FFB5C0EAFF090EE926000E62
:1016B000EA22EE50EFCFEAFFE96EEFCF14F0156AA1
:1016C00014AE3FD015683DD0D950140FE96EDACF73
:1016D000EAFF020EEE183BE1ED5039E1080EDBCFD8
:1016E000E6FF090EDBCFE6FF060EDBCFE6FF070EB7
:1016F000DBCFE6FF020EE66EE66A7CDA166E060EB9
:10170000E15E1650F3CF14F0F4CF15F0B4C0E9FF4A
:10171000B5C0EAFF070EF3CFEBFF080E15C0EBFFD5
:10172000B4C0E9FFB5C0EAFF070EE926000EEA22C1
:10173000EE50EFCFEAFFE96EEFCF14F0156A14BE5A
:101740001568020E14C0DBFF030E15C0DBFFD95075
:101750000C0FE96EDACFEAFFEE50ED1009E1B4C0EC
:10176000E9FFB5C0EAFF030EB6C0EBFF040E38D0A8
:10177000D9500C0FE96EDACFEAFF010EEE180BE13B
:10178000ED5009E1B4C0E9FFB5C0EAFF050EB6C0EF
:10179000EBFF060E25D0D9500C0FE96EDACFEAFF29
:1017A000030EEE180BE1ED5009E1B4C0E9FFB5C03E
:1017B000EAFF090EB6C0EBFF0A0E12D0D9500C0F8B
:1017C000E96EDACFEAFF020EEE180CE1ED500AE105
:1017D000B4C0E9FFB5C0EAFF070EB6C0EBFF080EC4
:1017E000B7C0EBFFD950040FE96EDACFEAFF630E02
:1017F000EE181DE1ED501BE1D9CFE9FFDACFEAFF8A
:10180000630EEE1814E1ED5012E1D950020FE96EAB
:10181000DACFEAFF630EEE180AE1ED5008E1B4C03A
:10182000E9FFB5C0EAFF630EEF6E020EA5D0DECF72
:1018300014F0DDCF15F0020EDBCF16F0030EDBCF78
:1018400017F015501718E8AE02D0173404D0165010
:10185000145C1750155817E2DECF18F0DDCF19F0E1
:10186000040EDBCF1AF0050EDBCF1BF019501B184E
:10187000E8AE02D01B3404D01A50185C1B50195823
:1018800002E2030E79D0020EDBCF14F0030EDBCFA1
:1018900015F0DECF16F0DDCF17F015501718E8AEB3
:1018A00002D0173404D01650145C1750155819E2A2
:1018B000020EDBCF18F0030EDBCF19F0040EDBCFE6
:1018C0001AF0050EDBCF1BF019501B18E8AE02D042
:1018D0001B3404D01A50185C1B50195802E2010E38
:1018E0004BD0040EDBCF14F0050EDBCF15F0DECFAE
:1018F00016F0DDCF17F015501718E8AE02D01734E8
:1019000004D01650145C1750155817E2040EDBCFA4
:1019100018F0050EDBCF19F0020EDBCF1AF0030E24
:10192000DBCF1BF019501B18E8AE02D01B3404D0DB
:101930001A50185C1B5019581BE3040EDBCF14F02F
:10194000050EDBCF15F0020EDB50141803E1030E79
:10195000DB5015180DE0040EDBCF16F0050EDBCFC3
:1019600017F0DF50161807E1DE52DD50171803E1BB
:101970000E0EDB6A05D0010EF36E0E0EF3CFDBFF09
:101980000F0EDB6A0E0EDB5000018A250001146E7B
:101990000F0EDB5000018B210001156E040E0D6E41
:1019A0000E6A14C008F015C009F071EC0FF004C005
:1019B00014F005C015F00450051013E1B4C0B6F0E2
:1019C000B5C0B7F0B4C0E9FFB5C0EAFF030EE92621
:1019D000000EEA22EECFB4F0EDCFB5F000018A6B35
:1019E00091D00E0EDB5000018A250001146E0F0EFF
:1019F000DB5000018B210001156E040E0D6E0E6A86
:101A000014C008F015C009F071EC0FF004C014F018
:101A100005C015F0010E041814E1155012E1B4C010
:101A2000B6F0B5C0B7F0B4C0E9FFB5C0EAFF050E27
:101A3000E926000EEA22EECFB4F0EDCFB5F0010EAC
:101A40005FD00E0EDB5000018A250001146E0F0ED0
:101A5000DB5000018B210001156E040E0D6E0E6A25
:101A600014C008F015C009F071EC0FF004C014F0B8
:101A700005C015F0020E041814E1155012E1B4C0AF
:101A8000B6F0B5C0B7F0B4C0E9FFB5C0EAFF070EC5
:101A9000E926000EEA22EECFB4F0EDCFB5F0020E4B
:101AA0002FD00E0EDB5000018A250001146E0F0EA0
:101AB000DB5000018B210001156E040E0D6E0E6AC5
:101AC00014C008F015C009F071EC0FF004C014F058
:101AD00005C015F0030E041816E1155014E1B4C04A
:101AE000B6F0B5C0B7F0B4C0E9FFB5C0EAFF090E63
:101AF000E926000EEA22EECFB4F0EDCFB5F0030EEA
:101B000000018A6F8B6B010EE76E0E0EDBCF14F0B7
:101B10000F0EDBCF15F0E7501426000E1522040E31
:101B20000D6E0E6A14C008F015C009F071EC0FF0CC
:101B300004C014F005C015F00450146E160EE15CDC
:101B400002E2E16AE552E16E1450E552E7CFD9FFB7
:101B50001200D9CFE6FFE1CFD9FFFD0EDBCF14F0A5
:101B6000FE0EDBCF15F00001800E151410E00868A2
:101B70000968FD0EDBCF0DF0FE0EDBCF0EF097EC0B
:101B80000FF0FD0E06C0DBFFFE0E07C0DBFFFB0EF5
:101B9000DBCF14F0FC0EDBCF15F00001800E151426
:101BA00010E008680968FB0EDBCF0DF0FC0EDBCF00
:101BB0000EF097EC0FF0FB0E06C0DBFFFC0E07C02B
:101BC000DBFFFB0EDBCF16F0FC0EDBCF17F0FD0EBC
:101BD000DB501624146EFE0EDB501720156E140613
:101BE000000E155A14C0F3FF15C0F4FFE552E7CFFD
:101BF000D9FF1200D9CFE6FFE1CFD9FF110EE126C0
:101C0000FB0EDBCFDEFFDBCFDDFFF90EDBCF08F015
:101C1000FA0EDBCF09F0020E08C0DBFF030E09C08D
:101C2000DBFF040E9AC0DBFF050E9BC0DBFF060E38
:101C30009CC0DBFF070E9DC0DBFF080E9EC0DBFFD4
:101C4000090E9FC0DBFF0A0EA0C0DBFF0B0EA1C078
:101C5000DBFF0C0EA2C0DBFF0D0EA3C0DBFF0E0EE0
:101C6000A4C0DBFF8CC014F08DC015F00B0E150264
:101C7000F3CF15F01402F3CF14F0F4501526000E34
:101C80001426030E15220F0E14C0DBFF100E15C014
:101C9000DBFFD950FD0FE96EFF0EDA20EA6EEE5041
:101CA000ED100EE1DF06010E01E2DB06D9CFE9FF00
:101CB000DACFEAFFEE50ED1059E1DE68DD6856D06C
:101CC000D950FD0FE96EFF0EDA20EA6E010EEE1814
:101CD00017E1ED5015E1020EDB2A030E01E3DB2ACA
:101CE000D950020FE96EDACFEAFFEE50ED103EE177
:101CF000010EF36E020EF3CFDBFF030EDB6A36D06C
:101D0000D950FD0FE96EFF0EDA20EA6E020EEE18D2
:101D100011E1ED500FE1DF2A010E01E3DB2AD9CFFB
:101D2000E9FFDACFEAFFEE50ED1020E1010EDE6EA2
:101D3000DD6A1CD0D950FD0FE96EFF0EDA20EA6E85
:101D4000030EEE1813E1ED5011E1020EDB06030E57
:101D500001E2DB06D950020FE96EDACFEAFFEE505E
:101D6000ED1004E1020EDB68030EDB68020EDBCF30
:101D7000E6FF030EDBCFE6FFDECFE6FFDDCFE6FFBB
:101D8000E8DEE552E552E552E552040EF3CFDBFF03
:101D9000050EDFCFDBFF020EDB50E76E060EE7CF4E
:101DA000DBFFD950FD0FE96EFF0EDA20EA6EEE5030
:101DB000ED1005E10B0EB4C0DBFF0C0E2FD0D95097
:101DC000FD0FE96EFF0EDA20EA6E010EEE1807E154
:101DD000ED5005E10D0EB4C0DBFF0E0E1FD0D95043
:101DE000FD0FE96EFF0EDA20EA6E020EEE1807E133
:101DF000ED5005E1070EB4C0DBFF080E0FD0D9503F
:101E0000FD0FE96EFF0EDA20EA6E030EEE1808E110
:101E1000ED5006E1090EB4C0DBFF0A0EB5C0DBFFD2
:101E20008CC0E9FF8DC0EAFF0B0EEA02F3CFEAFF98
:101E3000E902F3CFE9FFF450EA26000EE926030E8B
:101E4000EA22040EDBCFEEFF050EDBCFEEFF060E1F
:101E5000DBCFEEFF070EDBCFEEFF080EDBCFEEFF92
:101E6000090EDBCFEEFF0A0EDBCFEEFF0B0EDBCF52
:101E7000EEFF0C0EDBCFEEFF0D0EDBCFEEFF0E0EF6
:101E8000DBCFEEFF8CC014F08DC015F00B0E1502E9
:101E9000F3CF15F01402F3CF14F0F4501526000E12
:101EA0001426030E15220F0E14C0DBFF100E15C0F2
:101EB000DBFF00018C2B000E8D230F0EDBCF14F007
:101EC000100EDBCF15F014C0F3FF15C0F4FF110E98
:101ED000E15C02E2E16AE552E16EE552E7CFD9FF4B
:021EE0001200EE
:0E1EE200006A0EAE7AEF0FF00D6C0E1EE86A6D
:101EF0000E22001E09AE82EF0FF0086C091EE86A80
:101F00000922001E31EC10F009BE92EF0FF000AE76
:101F1000000C086C091EE86A0922046C051EE86AB8
:101F20000522000C00BE89EF0FF00188FF0C09C0EC
:101F300013F008C012F008500D02F4CF07F0F3CFF1
:101F400006F009500E02F4CF09F0F3CF08F00D02AD
:101F5000F3500726F4500822E86A092212500E02B4
:101F6000F3500726F4500822E86A09220EAEBDEFAE
:101F70000FF01250085E1350095A13AE000C0D50AA
:101F8000085E0E50095A000C08C012F008500D02ED
:101F9000F4CF07F0F3CF06F009500E02F4CF09F0AA
:101FA000F3CF08F00D02F3500726F4500822E86A38
:101FB000092212500E02F3500726F4500822E86A54
:041FC0000922000CE6
:0C1FC400060EF66E000EF76E000EF86EB2
:101FD00000010900F550AF6F0900F550B06F03E143
:101FE000AF6701D03DD00900F550AA6F0900F55048
:101FF000AB6F0900F550AC6F09000900F550E96EB0
:102000000900F550EA6E090009000900F550AD6FAE
:102010000900F550AE6F09000900F6CFB1F0F7CF17
:10202000B2F0F8CFB3F0AAC0F6FFABC0F7FFACC078
:10203000F8FF0001AD5302E1AE5307E00900F5508F
:10204000EE6EAD07F8E2AE07F9D7B1C0F6FFB2C049
:10205000F7FFB3C0F8FF0001AF07000EB05BBFD7BA
:0220600012006C
:0E206200056A046A100EE76ED890083609363B
:10207000043605360D50045C0E50055805E30D502E
:0E208000045E0E50055A082AE72EF0D7120013
:02208E00B00E92
:10209000F36E00EE00F00E0E01D81200EA6002D0DE
:0E20A000EE6AFCD7F350E9601200EE6AFCD73E
:0220AE001DEE25
:1020B00000F02DEE00F0F86A019CE2EC0FF08AECE3
:0A20C00010F00AEC00F0FBD712004C
:0620CA00FF0EE3501C6E46
:1020D0001B0E00D001D0200EE76EE72EFED71C2E7F
:0620E000FAD700D0120047
:0A20E600FF0EE350E84E1200000068
:0C20F00000D000D000D0E82EFAD712007B
:0420FC00C450176E47
:0E210000166AC3501610F36E17C0F4FF1200DB
:02210E00C2907D
:042110009D9C120080
:022114001200B7
:0A2116000001010101FF00000000BC
:1021200000000000000000000000000000000000AF
:102130000000FFFFFFFF00000000000000000000A3
:1021400001000000000EF8F8000000000000000090
:10215000000000000000000000000000000000007F
:00000001FF
