:020000040000FA
:060000004DEF11F01200AB
:0A000600010002230000600000006A
:0400100045000000A7
:0C001400D9CFE6FFE1CFD9FF090EE126AD
:10002000DF6A010EDB6A020EDB6A030EDB6A040E76
:10003000DB6A050EDB6A060EDB6A070EDB6A080E5A
:10004000DB6A0001A16BA26B0001740EA15D000EC2
:10005000A2592DE2A1C0E9FFA2C0EAFF0B0EEA02FD
:10006000F3CFEAFF0B0EE902F3CFE9FFF450EA26E3
:10007000000EE926020EEA2296C0EEFF97C0EEFFC0
:1000800098C0EEFF99C0EEFF9AC0EEFF9BC0EEFF56
:100090009CC0EEFF9DC0EEFF9EC0EEFF9FC0EEFF36
:1000A000A0C0EEFF0001A12B000EA223CDD70001BE
:1000B000A16BA26B0001100EA15D000EA25932E2ED
:1000C0000001A36BA46B0001100EA35D000EA459E8
:1000D00024E2A1C014F0A2C015F0050ED890143689
:1000E0001536E806FBE1000E1426070E1522020E57
:1000F000086E096AA3C00DF0A4C00EF0BAEC10F0AF
:1001000014500624E96E15500720EA6EEE6AED6A77
:100110000001A32B000EA423D6D70001A12B000EB3
:10012000A223C8D706018B0EFC6F000EFD6F0601DF
:100130008B0EFE6F000EFF6F07018B0E006F000E1F
:10014000016F0000FFEC05F0100EE66E270EE66E64
:10015000D0EC06F0E552E552F90E816E010EE66E26
:1001600069EC11F0E552050EE66E1BDAE552F3CFAD
:1001700066F0F4CF67F0010EE66E69EC11F0E5521F
:10018000090EE66E0EDAE552F3CF68F0F4CF69F0AF
:10019000010EE66E69EC11F0E552010EE66E01DA31
:1001A000E552F3CF6AF0F4CF6BF0816800000001F4
:1001B000785179110CE000017A517B1108E0FA0EB8
:1001C00000017C6F7D6BC80E00017E6F7F6B0001AC
:1001D000D8906B5104E6AC0E6A5D030E6B5910E3C8
:1001E0008168D00EE66E070EE66ED0EC06F0E552A2
:1001F000E5520001010E636F010EE66E2ED9E55245
:1002000096D8010801E1A8D700017D5100016719C6
:10021000E8AE02D0673507D0665100017C5D000171
:10022000675100017D5911E2000166510001785DBE
:10023000146E795100016755156ED890155004E67B
:10024000FA0E145C000E155814E38168D00EE66EA9
:10025000070EE66ED0EC06F0E552E552F90E816E1F
:100260000001616B0001010E656FE66AF6D8E55288
:1002700033D000017F5100016919E8AE02D0693521
:1002800007D0685100017E5D0001695100017F596E
:1002900011E20001685100017A5D146E7B5100018A
:1002A0006955156ED890155004E6FA0E145C000ED0
:1002B000155812E38168D00EE66E070EE66ED0EC9C
:1002C00006F0E552E552F90E816E0001626B000105
:1002D000656BE66AC2D8E55274C078F075C079F0F3
:1002E00076C07AF077C07BF070C074F071C075F0A2
:1002F00072C076F073C077F06CC070F06DC071F0B2
:100300006EC072F06FC073F066C06CF067C06DF0C5
:1003100068C06EF069C06FF01FD7090EE15C02E2A1
:10032000E16AE552E16EE552E7CFD9FF1200000124
:10033000D890675104E6F80E665D020E67590EE329
:10034000D890675104E6F80E665D020E6759010EFB
:10035000E66E200EE66E010EE66E14D0D89069515E
:1003600004E6580E685D020E695911E3D890695190
:1003700004E6580E685D020E6959010EE66E200E05
:10038000E66EE66A05D8E552E552E552010C000C2E
:10039000D9CFE6FFE1CFD9FF816827EC06F022EC48
:1003A00006F0F90E816EFE0EDB0429E1FC0EDB5037
:1003B00003E1F70E816E02D0FD0E816EFD0EDB5063
:1003C000D65C1CE2D750146E156AD890155004E61E
:1003D000FF0E145C000E155811E2FD0EDB50CE5CD2
:1003E0000DE2CF50166E176AD890175004E6FF0E34
:1003F000165C000E175802E20000E0D728D0FC0E71
:10040000DB5003E1FE0E816E02D0FB0E816EFD0E0D
:10041000DB50D65C1CE2D750146E156AD89015508C
:1004200004E6FF0E145C000E155811E2FD0EDB50C1
:10043000CE5C0DE2CF50166E176AD890175004E6C6
:10044000FF0E165C000E175802E20000E0D7F90E0E
:10045000816EE552E7CFD9FF1200D9CFE6FFE1CF99
:10046000D9FF020EE126010EDB6AFE0EDB5039E1F8
:100470000001650502E11C0E01D0220EE66EE66A5F
:10048000C2D8E552E552D00EE66E070EE66ED0EC0D
:1004900006F0E552E552010EDB6A050EF36E010E21
:1004A000DBCFF4FFF350F45C10E20A0EE66E69EC69
:1004B00011F0E552010EE66E74D8E552F3CF6AF002
:1004C000F4CF6BF0010EDB2AE8D700016B3504E2B4
:1004D0006A515E08010E6B5502E3636B02D0010E98
:1004E000636F8168FE0EDB5005E00001010E616F55
:1004F000636F626FACDB62C0E6FF63C0E6FF61C0A2
:10050000E6FFE8DBE66E08EC07F0E552E552E5525F
:10051000E552DF6EDFCFE6FF32DAE55200016C6BA9
:100520006D6B6E6B6F6B706B716B726B736B746BEF
:10053000756B766B776B786B796B7A6B7B6B7C69A1
:100540007D697E697F69010E616F626F636B7ADB23
:100550000001806B816B826B836B8168D00EE66ECD
:10056000070EE66ED0EC06F0E552E552070EE66E99
:10057000E66A49D8E552E5528168D00EE66E070E6C
:10058000E66ED0EC06F0E552E552F90E816E020EF1
:10059000E15C02E2E16AE552E16EE552E7CFD9FFA4
:1005A0001200D9CFE6FFE1CFD9FF020EE126C26AE1
:1005B000A10EC16EFE0EDB50C26EE66A69EC11F050
:1005C000E552020EC210C26EC2A202D00000FCD7D9
:1005D00074EC11F0F3CFDEFFF4CFDDFF7DEC11F012
:1005E000DECF14F0DDCF15F014C0F3FF15C0F4FF1B
:1005F00000D0020EE15C02E2E16AE552E16EE552F2
:10060000E7CFD9FF1200D9CFE6FFE1CFD9FF040E23
:10061000E126DE6ADD6A020EDB6A030EDB6A17DBA7
:1006200011DBF90E816E0001606B00016051146EE8
:10063000156AFD0EDBCF16F0FE0EDBCF17F015505E
:100640001718E8AE02D0173404D01650145C1750B7
:10065000155801E32DD1050EE66EA3DFE552F3CF69
:1006600066F0F4CF67F0090EE66E9BDFE552F3CF3C
:1006700068F0F4CF69F000016051050845E3D950F6
:10068000FD0FE96EFF0EDA20EA6E110EEE1801E1A1
:10069000ED500BE0D950FD0FE96EFF0EDA20EA6E47
:1006A0000E0EEE1831E1ED502FE1673513E2665181
:1006B0005E08010E67550EE26651785D146E795141
:1006C0006755156ED890E85004E6FA0E145C000EDB
:1006D000155802E361054DE0693513E26851E608FB
:1006E000000E69550EE268517A5D146E7B516955B2
:1006F000156ED890E85004E6FA0E145C000E1558FA
:1007000068E3620566E159D06051050801E381D0D4
:100710006051070801E27DD0D950FD0FE96EFF0E50
:10072000DA20EA6E220EEE1801E1ED500BE0D9500E
:10073000FD0FE96EFF0EDA20EA6E1C0EEE1869E17D
:10074000ED5067E1673513E266519008010E675579
:100750000EE26651785D146E79516755156ED8902A
:10076000E85004E6FA0E145C000E15580FE361051C
:100770000DE18168D00EE66E070EE66E11DBE552E4
:10078000E552F90E816E0001616B23D0693513E2E9
:1007900068511808010E69550EE268517A5D146EB1
:1007A0007B516955156ED890E85004E6FA0E145C3A
:1007B000000E15580EE362050CE18168D00EE66E5E
:1007C000070EE66EEDDAE552E552F90E816E000194
:1007D000626B74C078F075C079F076C07AF077C03B
:1007E0007BF070C074F071C075F072C076F073C0A9
:1007F00077F06CC070F06DC071F06EC072F06FC0B9
:1008000073F066C06CF067C06DF068C06EF069C0D0
:100810006FF01B0ED65C01E208D7602B1B0ED65C76
:10082000D66E020EDB6A030EDB6A010EE66E69EC21
:1008300011F0E552010EE66EB4DEE552020EF3CF82
:10084000DBFF030EF4CFDBFF020EDBCF14F0030E51
:10085000DBCF15F0DECF16F0DDCF17F01650145CAD
:100860001750155801E2E1D6020EDBCF14F0030E4B
:10087000DBCF15F0AC0E145C030E155807E381684E
:10088000020EDBCFDEFFDBCFDDFF12D0020EDBCFAF
:1008900014F0030EDBCF15F0000E145C040E155897
:1008A00001E3C3D6020EDBCFDEFFDBCFDDFFBDD61B
:1008B0008168D950FD0FE96EFF0EDA20EA6E0E0E48
:1008C000EE1801E1ED500BE0D950FD0FE96EFF0E7F
:1008D000DA20EA6E110EEE1847E1ED5045E1010E07
:1008E000E66E69EC11F0E552010EE66E5ADEE55255
:1008F000020EF3CFDBFF030EF4CFDBFFDECF14F0ED
:10090000DDCF15F0260E145C020E15582DE3DECF58
:1009100016F0DDCF17F0AC0E165C030E175824E26C
:100920000001010E636FF90E816EDECF14F0DDCF92
:1009300015F0AC0E145C030E155815E2010EE66EB0
:1009400069EC11F0E552010EE66E2BDEE552020E67
:10095000F3CFDBFF030EF4CFDBFF020EDBCFDEFFB6
:10096000DBCFDDFFE2D781688168040EE15C02E243
:10097000E16AE552E16EE552E7CFD9FF1200D9CF27
:10098000E6FFE1CFD9FF070EE126A40EDF6EDE52AF
:10099000010EDD6E020EDB6A030EDB6A040EDB6AFB
:1009A000050EDB6A060EDB6A4DD9FE0EDB5003082E
:1009B00002E1EA0E0DD0FE0EDB0409E0FE0EDB5074
:1009C000020808E1DE52020EDD6EB00EDF6EF50E9B
:1009D000816E73D0FE0EDB5003E1F90E816E05D1FE
:1009E000F60E816E0A0EE66E69EC11F0E552030E0A
:1009F000DBCF14F0040EDBCF15F0D890155004E6D1
:100A00005A0E145C000E155825E2050EDBCF16F0C9
:100A1000060EDBCF17F0D890175004E65A0E165C7E
:100A2000000E175817E2D650E66ED950030FE96E44
:100A3000DACFEAFFE552E750EE6EED6ACE50E66E91
:100A4000D950050FE96EDACFEAFFE552E750EE6EB6
:100A5000ED6ACDD7030EDB6A040EDB6A050EDB6A96
:100A6000060EDB6A8168D00EE66E070EE66E98D938
:100A7000E552E552E7D8050EE66E93DDE552F3CF79
:100A800066F0F4CF67F0090EE66E8BDDE552F3CF2A
:100A900068F0F4CF69F00001F4506719E8AE02D0B5
:100AA000673504D06651685D6751695902E3EA0E03
:100AB00001D0F50E816E3C0EDF6E020EDB6A010E78
:100AC000DB50F36E020EDBCFF4FFF350F45C01E376
:100AD0008BD0D00EE66E69EC11F0E552030EDBCF41
:100AE00014F0040EDBCF15F0DF50000115AE02D07C
:100AF000D89003D0145C000E155826E2050EDBCF0B
:100B000016F0060EDBCF17F0DF5017AE02D0D890EC
:100B100003D0165C000E175817E2D650E66ED95077
:100B2000030FE96EDACFEAFFE552E750EE6EED6AA9
:100B3000CE50E66ED950050FE96EDACFEAFFE552E6
:100B4000E750EE6EED6ACAD7030EDB6A040EDB6A6D
:100B5000050EDB6A060EDB6A75D8D00EE66E69EC10
:100B600011F0E552030EDBCF14F0040EDBCF15F0CD
:100B7000DF50000115AE02D0D89003D0145C000EF7
:100B8000155826E2050EDBCF16F0060EDBCF17F068
:100B9000DF5017AE02D0D89003D0165C000E175865
:100BA00017E2D650E66ED950030FE96EDACFEAFFAE
:100BB000E552E750EE6EED6ACE50E66ED950050F65
:100BC000E96EDACFEAFFE552E750EE6EED6ACAD77A
:100BD000030EDB6A040EDB6A050EDB6A060EDB6AB7
:100BE00031D8020EDB2A6BD78168070EE15C02E286
:100BF000E16AE552E16EE552E7CFD9FF12008F0EB0
:100C0000D3147009D36E550EA76EAA0EA76E0E01EF
:100C1000BF6B0C0EE46F010EBF6FB80ED56E4C0E9D
:100C20009A6E870ECD6E936A0F01380E486F070ECD
:100C3000926E010E486F030E946E806A816A826A1A
:100C400022EF06F0D76AD66ACF6ACE6A1200D9CFF1
:100C5000E6FFE1CFD9FF020EE126DE6ADD6A010E72
:100C6000E66E5BEC11F0E552D650156AE8500001D3
:100C7000802715508123D750DE6EDD6ADECF14F059
:100C8000DDCF15F014C015F0146A145080271550EC
:100C90008123DE6ADD6ACE50146E156AE850822721
:100CA00015508323CF50DE6EDD6ADECF14F0DDCF2A
:100CB00015F014C015F0146A1450822715508323C0
:100CC000020EE15C02E2E16AE552E16EE552E7CF35
:100CD000D9FF1200D9CFE6FFE1CFD9FF030EE126FD
:100CE000DF6A010E82C0DBFF020E83C0DBFF010E54
:100CF000DBCF14F0020EDBCF15F0DE0E145C030E1A
:100D0000155812E3DF2A010EDBCF14F0020EDBCF01
:100D100015F0DE0E145E030E155A010E14C0DBFF33
:100D2000020E15C0DBFFE3D7010EDBCF14F0020E7D
:100D3000DBCF15F0BD0E145C010E155801E3DF2A60
:100D4000DF50146E030EE15C02E2E16AE552E16EEF
:100D50001450E552E7CFD9FF1200806AF40EE66E18
:100D6000010EE66E1DD8E552E552280E806EF40E97
:100D7000E66E010EE66E14D8E552E552806AF40E76
:100D8000E66E010EE66E0CD8E552E552280E806E36
:100D9000F40EE66E010EE66E03D8E552E55212003F
:100DA000D9CFE6FFE1CFD9FF030EE126DE6ADD6A87
:100DB000DECF14F0DDCF15F0FD0EDBCF16F0FE0E0A
:100DC000DBCF17F01650145C1750155817E2020EBF
:100DD000DB6A020EDB50146E156AD890155004E6DB
:100DE000A50E145C000E155804E20000020EDB2A6A
:100DF000F0D7DF2A010E01E3DB2ADAD7030EE15C2C
:100E000002E2E16AE552E16EE552E7CFD9FF120056
:100E1000D9CFE6FFE1CFD9FF130EE126630EDE6ED8
:100E2000DD6AF36E020EF3CFDBFF030EDB6A630EA7
:100E3000F36E040EF3CFDBFF050EDB6AF36E060ED6
:100E4000F3CFDBFF050EF36E070EF3CFDBFF080ECB
:100E5000DB6A020E0001156A8625146E8751152281
:100E6000040E0D6E0E6A14C008F015C009F067EC90
:100E700010F005C015F0090E04C0DBFF0A0E05C016
:100E8000DBFFF70EF36E0B0EF3CFDBFF0C0EDB6810
:100E9000F70EF36E0D0EF3CFDBFF0E0EDB68FCC614
:100EA000E9FFFDC6EAFF010EEB50146E156A14BE91
:100EB00015680F0E14C0DBFF100E15C0DBFFFCC65B
:100EC000E9FFFDC6EAFF020EEB50146E156A14BE70
:100ED0001568110E14C0DBFF120E15C0DBFF0001F8
:100EE000010E861923E1875121E1FCC6E9FFFDC609
:100EF000EAFF020EEB50146EE83411E3FCC6E9FF82
:100F0000FDC6EAFF020EEB50FF0DF350F36EFE0E2E
:100F1000DBCFF4FFF350F45C02E3FE0EDB2AFE0E9F
:100F2000DB50146E156AD950110F52D0030E86197A
:100F30002AE1875128E1FCC6E9FFFDC6EAFF020E5F
:100F4000EB50146E000EE76E1418E8AE02D01434A5
:100F500003D0E750D88014540FE2FCC6E9FFFDC669
:100F6000EAFF020EEB50F36EFE0EDBCFF4FFF35000
:100F7000F45C02E3FE0EDB2AFE0EDB50146E156AF3
:100F8000D950110F57D0020E86192AE1875128E156
:100F9000FCC6E9FFFDC6EAFF010EEB50146EE83413
:100FA00011E3FCC6E9FFFDC6EAFF010EEB50FF0DA1
:100FB000F350F36EFE0EDBCFF4FFF350F45C02E36C
:100FC000FE0EDB2AFE0EDB50146E156AD9500F0F91
:100FD000E96EDACFEAFF1450EE261550ED2231D03B
:100FE000865187112EE1FCC6E9FFFDC6EAFF010E1E
:100FF000EB50146E000EE76E1418E8AE02D01434F5
:1010000003D0E750D88014540FE2FCC6E9FFFDC6B8
:10101000EAFF010EEB50F36EFE0EDBCFF4FFF35050
:10102000F45C02E3FE0EDB2AFE0EDB50146E156A42
:10103000D9500F0FE96EDACFEAFF1450EE5E15506B
:10104000ED5A0F0EDBCF08F0100EDBCF09F00B0EC0
:1010500008C0DBFF0C0E09C0DBFF110EDBCF08F070
:10106000120EDBCF09F00D0E08C0DBFF0E0E09C01B
:10107000DBFF0B0EDBCF14F00C0EDBCF15F01534BD
:101080000AE214500008000E155405E20B0EDB06B0
:101090000C0E01E2DB060D0EDBCF14F00E0EDBCFE3
:1010A00015F015340AE214500008000E155405E23C
:1010B0000D0EDB060E0E01E2DB06D9500D0FE96EB8
:1010C000DACFEAFF080EEE26000EED22D9500B0F04
:1010D000E96EDACFEAFF080EEE26000EED220B0EC7
:1010E000DBCF14F00C0EDBCF15F0050ED8901436C4
:1010F0001536E806FBE1000E1426070E1522020E37
:10110000086E096A0D0EDBCF0DF00E0EDBCF0EF070
:101110008DEC10F014500624E96E15500720EA6E8D
:10112000EE50ED1001E034D1110EDBCFE6FF120ED0
:10113000DBCFE6FF0F0EDBCFE6FF100EDBCFE6FFC7
:10114000AAEC0FF0E552E552E552E552F3CF16F066
:10115000F4CF17F00B0EDBCF14F00C0EDBCF15F035
:10116000050ED89014361536E806FBE1000E14265D
:10117000070E1522020E086E096A0D0EDBCF0DF068
:101180000E0EDBCF0EF08DEC10F014500624E96E3D
:1011900015500720EA6E16C0EEFF17C0EDFFFCC623
:1011A000FEF6FDC6FFF60B0EDBCF14F00C0EDBCF08
:1011B00015F0050ED89014361536E806FBE1000E42
:1011C0001426070E1522020E086E096A0D0EDBCFDB
:1011D0000DF00E0EDBCF0EF08DEC10F01450062447
:1011E000E96E15500720EA6EEECFFCF6EDCFFDF666
:1011F000D950090FE96EDACFEAFFEE50ED1013E196
:10120000FCC6E9FFFDC6EAFF030EFEC6EBFF040EB7
:10121000FFC6EBFFFEC6E9FFFFC6EAFF070EFCC6EE
:10122000EBFF080E56D0D950090FE96EDACFEAFF6E
:10123000010EEE1815E1ED5013E1FCC6E9FFFDC605
:10124000EAFF050EFEC6EBFF060EFFC6EBFFFEC66D
:10125000E9FFFFC6EAFF090EFCC6EBFF0A0E39D014
:10126000D950090FE96EDACFEAFF020EEE1815E148
:10127000ED5013E1FCC6E9FFFDC6EAFF070EFEC60E
:10128000EBFF080EFFC6EBFFFEC6E9FFFFC6EAFF55
:10129000030EFCC6EBFF040E1CD0D950090FE96EFB
:1012A000DACFEAFF030EEE1816E1ED5014E1FCC6AA
:1012B000E9FFFDC6EAFF090EFEC6EBFF0A0EFFC6F8
:1012C000EBFFFEC6E9FFFFC6EAFF050EFCC6EBFF1B
:1012D000060EFDC6EBFFFD0EDB501AE1110EDBCF53
:1012E000E6FF120EDBCFE6FF0F0EDBCFE6FF100EA0
:1012F000DBCFE6FF030EE66EE66A86C0E6FF87C038
:10130000E6FFF3D9146E080EE15E1450DE6EDD6A5E
:10131000FC0EDB5022E1110EDBCFE6FF120EDBCF1D
:10132000E6FF0F0EDBCFE6FF100EDBCFE6FF000E71
:10133000E66EE66A86C0E6FF87C0E6FFD6D9146E81
:10134000080EE15E1450E66ED950040FE96EDACF54
:10135000EAFFE552E750EE6EED6AFB0EDB5001E06E
:1013600002D1110EDBCFE6FF120EDBCFE6FF0F0E30
:10137000DBCFE6FF100EDBCFE6FF010EE66EE66A7E
:1013800086C0E6FF87C0E6FFB0D9146E080EDFD036
:10139000FCC6FEF6FDC6FFF60B0EDBCF14F00C0EFE
:1013A000DBCF15F0050ED89014361536E806FBE1B4
:1013B000000E1426070E1522020E086E096A0D0E85
:1013C000DBCF0DF00E0EDBCF0EF08DEC10F01450D5
:1013D0000624E96E15500720EA6EEECFFCF6EDCF3D
:1013E000FDF6D950090FE96EDACFEAFFEE50ED10A5
:1013F00013E1FCC6E9FFFDC6EAFF030EFEC6EBFFE4
:10140000040EFFC6EBFFFEC6E9FFFFC6EAFF070EAC
:10141000FCC6EBFF080E56D0D950090FE96EDACFA3
:10142000EAFF010EEE1815E1ED5013E1FCC6E9FFED
:10143000FDC6EAFF050EFEC6EBFF060EFFC6EBFF7C
:10144000FEC6E9FFFFC6EAFF090EFCC6EBFF0A0E67
:1014500039D0D950090FE96EDACFEAFF020EEE1843
:1014600015E1ED5013E1FCC6E9FFFDC6EAFF070EEA
:10147000FEC6EBFF080EFFC6EBFFFEC6E9FFFFC688
:10148000EAFF030EFCC6EBFF040E1CD0D950090F77
:10149000E96EDACFEAFF030EEE1816E1ED5014E123
:1014A000FCC6E9FFFDC6EAFF090EFEC6EBFF0A0E09
:1014B000FFC6EBFFFEC6E9FFFFC6EAFF050EFCC64E
:1014C000EBFF060EFDC6EBFFFD0EDB5012E1030E37
:1014D000E66EE66A86C0E6FF87C0E6FFFCC6E6FF6A
:1014E000FDC6E6FFB6DA146E060EE15E1450DE6E3F
:1014F000DD6AFC0EDB501AE1000EE66EE66A86C07D
:10150000E6FF87C0E6FFFCC6E6FFFDC6E6FFA1DA00
:10151000146E060EE15E1450E66ED950040FE96EAB
:10152000DACFEAFFE552E750EE6EED6AFB0EDB50D4
:101530001AE1010EE66EE66A86C0E6FF87C0E6FFA6
:10154000FCC6E6FFFDC6E6FF84DA146E060EE15E19
:101550001450E66ED950020FE96EDACFEAFFE55279
:10156000E750EE6EED6A020EDBCFE6FF030EDBCF37
:10157000E6FF040EDBCFE6FF050EDBCFE6FFDECF96
:10158000E6FFDDCFE6FF6FD9146E060EE15E145064
:10159000060EF3CFDBFFDB500001156A8625146EC3
:1015A00087511522040E0D6E0E6A14C008F015C086
:1015B00009F067EC10F004C014F005C015F0070E38
:1015C00004C0DBFF080E05C0DBFFD950070FE96E32
:1015D000DACFEAFFEE50ED1003E10001866B25D073
:1015E000D950070FE96EDACFEAFF010EEE1804E1D9
:1015F000ED5002E1010E17D0D950070FE96EDACF96
:10160000EAFF020EEE1804E1ED5002E1020E0BD0EB
:10161000D950070FE96EDACFEAFF030EEE1806E1A4
:10162000ED5004E1030E0001866F876B060EDB5060
:10163000146E130EE15C02E2E16AE552E16E1450B1
:10164000E552E7CFD9FF1200D9CFE6FFE1CFD9FFAE
:10165000FD0EDBCF14F0FE0EDBCF15F00001800E87
:10166000151410E008680968FD0EDBCF0DF0FE0EC2
:10167000DBCF0EF08DEC10F0FD0E06C0DBFFFE0E92
:1016800007C0DBFFFB0EDBCF14F0FC0EDBCF15F049
:101690000001800E151410E008680968FB0EDBCF0E
:1016A0000DF0FC0EDBCF0EF08DEC10F0FB0E06C043
:1016B000DBFFFC0E07C0DBFFFB0EDBCF16F0FC0EE2
:1016C000DBCF17F0FD0EDB501624146EFE0EDB5040
:1016D0001720156E1406000E155A14C0F3FF15C01E
:1016E000F4FFE552E7CFD9FF1200D9CFE6FFE1CFF3
:1016F000D9FF060EE126FB0EDBCF16F0FC0EDBCF8A
:1017000017F0FD0EDB501624146EFE0EDB50172072
:10171000156E1450E66E4EEC10F0E552DE6EDD6A8A
:10172000F90EDBCF08F0FA0EDBCF09F0020E08C08D
:10173000DBFF030E09C0DBFFF70EDBCF08F0F80E6E
:10174000DBCF09F0040E08C0DBFF050E09C0DBFF8C
:10175000D9CFE9FFDACFEAFFEE50ED1011E1020E2A
:10176000DB06030E01E2DB06D950020FE96EDACF89
:10177000EAFFEE50ED1059E1020EDB68030E54D083
:10178000D9CFE9FFDACFEAFF010EEE1816E1ED50EE
:1017900014E1040EDB2A050E01E3DB2AD950040F05
:1017A000E96EDACFEAFFEE50ED103FE1010EF36E85
:1017B000040EF3CFDBFF050E1CD0D9CFE9FFDACF43
:1017C000EAFF020EEE1817E1ED5015E1020EDB2ADA
:1017D000030E01E3DB2AD950020FE96EDACFEAFFEC
:1017E000EE50ED1022E1010EF36E020EF3CFDBFF9F
:1017F000030EDB6A1AD0D9CFE9FFDACFEAFF030E76
:10180000EE1813E1ED5011E1040EDB06050E01E2C6
:10181000DB06D950040FE96EDACFEAFFEE50ED1087
:1018200004E1040EDB68050EDB68040EDBCFE6FF87
:10183000050EDBCFE6FF020EDBCFE6FF030EDBCFAC
:10184000E6FF02DFE552E552E552E552F350146E31
:10185000060EE15C02E2E16AE552E16E1450E552E7
:10186000E7CFD9FF1200D9CFE6FFE1CFD9FF020EB3
:10187000E126010EDE6EDD6AD950FB0FE96EFF0E28
:10188000DA20EA6E630EEE1823E1ED5021E1D95023
:10189000FD0FE96EFF0EDA20EA6E630EEE1818E116
:1018A000ED5016E1D950F90FE96EFF0EDA20EA6E1D
:1018B000630EEE180DE1ED500BE1FCC6E9FFFDC62D
:1018C000EAFF630EEF6E0001010E8A6F020EADD0CB
:1018D000FD0EDBCF14F0FE0EDBCF15F0F90EDBCFE3
:1018E00016F0FA0EDBCF17F015501718E8AE02D03D
:1018F000173404D01650145C1750155817E2FD0E1B
:10190000DBCF18F0FE0EDBCF19F0FB0EDBCF1AF0A9
:10191000FC0EDBCF1BF019501B18E8AE02D01B34B5
:1019200004D01A50185C1B5019586EE3F90EDBCF27
:1019300014F0FA0EDBCF15F0FD0EDBCF16F0FE0E25
:10194000DBCF17F015501718E8AE02D0173404D0CB
:101950001650145C1750155819E2F90EDBCF18F029
:10196000FA0EDBCF19F0FB0EDBCF1AF0FC0EDBCF4B
:101970001BF019501B18E8AE02D01B3404D01A50CB
:10198000185C1B50195802E2010E4FD0FB0EDBCF42
:1019900014F0FC0EDBCF15F0FD0EDBCF16F0FE0EC3
:1019A000DBCF17F015501718E8AE02D0173404D06B
:1019B0001650145C1750155819E2FB0EDBCF18F0C7
:1019C000FC0EDBCF19F0F90EDBCF1AF0FA0EDBCFED
:1019D0001BF019501B18E8AE02D01B3404D01A506B
:1019E000185C1B50195802E2DE6A20D0FB0EDBCFD8
:1019F00014F0FC0EDBCF15F0FD0EDB50141806E1E1
:101A0000FE0EDB50151802E1030E0FD0FB0EDBCFEC
:101A100014F0FC0EDBCF15F0F90EDB50141807E1C3
:101A2000FA0EDB50151803E1010EDE6EDD6ADECF23
:101A300014F0DDCF15F014C0F3FF15C0F4FF020E53
:101A4000E15C02E2E16AE552E16EE552E7CFD9FFDF
:101A50001200D9CFE6FFE1CFD9FF040EE126F90E3F
:101A6000DBCF16F0FA0EDBCF17F0FB0EDB5016249F
:101A7000146EFC0EDB501720156E1450E66E0EDB54
:101A8000E552DE6EDD6A020EDB6A030EDB6AD9CF39
:101A9000E9FFDACFEAFFEE50ED1052E1FD0EDBCFA9
:101AA000E9FFFE0EDBCFEAFF030EE926000EEA2275
:101AB000EE50ED1025E0FD0EDBCFE9FFFE0EDBCF93
:101AC000EAFF030EE926000EEA22EE50EFCFEAFF0E
:101AD000E96EEFCF16F0176A16BE176816C0E6FF5C
:101AE00017C0E6FFFB0EDBCFE6FFFC0EDBCFE6FF09
:101AF000FD0EDBCFE9FFFE0EDBCFEAFF030E13D1B5
:101B0000FD0EDBCFE9FFFE0EDBCFEAFF020EE9267A
:101B1000000EEA22EFCF14F0156A14BE156814C047
:101B2000E6FF15C0E6FFFD0EDBCFE9FFFE0EDBCFC3
:101B3000EAFFEE52EFCF16F0176A16AE3ED1B5D0DF
:101B4000D9CFE9FFDACFEAFF010EEE1854E1ED50EC
:101B500052E1FD0EDBCFE9FFFE0EDBCFEAFF050E03
:101B6000E926000EEA22EE50ED1025E0FD0EDBCF57
:101B7000E9FFFE0EDBCFEAFF050EE926000EEA22A2
:101B8000EE50EFCFEAFFE96EEFCF16F0176A16BE00
:101B9000176816C0E6FF17C0E6FFFB0EDBCFE6FFB7
:101BA000FC0EDBCFE6FFFD0EDBCFE9FFFE0EDBCF49
:101BB000EAFF050EB8D0FD0EDBCFE9FFFE0EDBCF4E
:101BC000EAFF020EE926000EEA22EFCF14F0156AB2
:101BD00014BE156814C0E6FF15C0E6FFFD0EDBCF8E
:101BE000E9FFFE0EDBCFEAFFEE52EFCF16F0176AE9
:101BF00016AEE3D05AD0D9CFE9FFDACFEAFF020E12
:101C0000EE1855E1ED5053E1FD0EDBCFE9FFFE0E7E
:101C1000DBCFEAFF070EE926000EEA22EE50ED10B8
:101C200025E0FD0EDBCFE9FFFE0EDBCFEAFF070E5E
:101C3000E926000EEA22EE50EFCFEAFFE96EEFCF81
:101C400016F0176A16BE176816C0E6FF17C0E6FF43
:101C5000FB0EDBCFE6FFFC0EDBCFE6FFFD0EDBCF9E
:101C6000E9FFFE0EDBCFEAFF070E5DD0FD0EDBCFF6
:101C7000E9FFFE0EDBCFEAFF020EE926000EEA22A4
:101C8000EFCF14F0156A14BE156814C0E6FF15C036
:101C9000E6FFFD0EDBCFE9FFFE0EDBCFEAFFEE52E3
:101CA000EFCF16F0176A16AE88D0176886D0D9CF56
:101CB000E9FFDACFEAFF030EEE1801E094D0ED5011
:101CC00001E091D0FD0EDBCFE9FFFE0EDBCFEAFF96
:101CD000090EE926000EEA22EE50ED104FE0FD0E4F
:101CE000DBCFE9FFFE0EDBCFEAFF090EE926000E8F
:101CF000EA22EE50EFCFEAFFE96EEFCF16F0176A57
:101D000016BE176816C0E6FF17C0E6FFFB0EDBCF56
:101D1000E6FFFC0EDBCFE6FFFD0EDBCFE9FFFE0E9C
:101D2000DBCFEAFF090EE926000EEA22EECFE6FF3E
:101D3000EFCFE6FF67D8E552E552E552E552E552AE
:101D4000E7CF17F0E552E7CF16F0F3CF18F0F4CF56
:101D500019F0010E1826000E1922050E086E096AE8
:101D600018C00DF019C00EF08DEC10F016500624BE
:101D7000146E17500720156E145038D0FD0EDBCFAF
:101D8000E9FFFE0EDBCFEAFF020EE926000EEA2293
:101D9000EFCF14F0156A14BE156814C0E6FF15C025
:101DA000E6FFFD0EDBCFE9FFFE0EDBCFEAFFEE52D2
:101DB000EFCF16F0176A16BE176816C0E6FF17C0F9
:101DC000E6FFF90EDBCFE6FFFA0EDBCFE6FFFB0EF8
:101DD000DBCFE6FFFC0EDBCFE6FF87DC186E080EDC
:101DE000E15E185003D0ADEC06F0FDD7146E040E82
:101DF000E15C02E2E16AE552E16E1450E552E7CFA0
:101E0000D9FF1200D9CFE6FFE1CFD9FF020EE126BC
:101E1000DE6ADD6AFD0EDBCFE9FFFE0EDBCFEAFFF7
:101E2000070EE926000EEA22EE50ED1015E0D9501B
:101E3000FB0FE96EFF0EDA20EA6EEE50ED100CE0BB
:101E4000DECF14F0DDCF15F0010E1426000E1522A2
:101E500014C0DEFF15C0DDFFFD0EDBCFE9FFFE0E77
:101E6000DBCFEAFF030EE926000EEA22EE50ED106A
:101E700017E0D950FB0FE96EFF0EDA20EA6E020E72
:101E8000EE1801E1ED500CE0DECF14F0DDCF15F0DF
:101E9000010E1426000E152214C0DEFF15C0DDFF52
:101EA000FD0EDBCFE9FFFE0EDBCFEAFF050EE926D4
:101EB000000EEA22EE50ED1017E0D950FB0FE96E4C
:101EC000FF0EDA20EA6E030EEE1801E1ED500CE091
:101ED000DECF14F0DDCF15F0010E1426000E152212
:101EE00014C0DEFF15C0DDFFFD0EDBCFE9FFFE0EE7
:101EF000DBCFEAFF090EE926000EEA22EE50ED10D4
:101F000017E0D950FB0FE96EFF0EDA20EA6E010EE2
:101F1000EE1801E1ED500CE0DECF14F0DDCF15F04E
:101F2000010E1426000E152214C0DEFF15C0DDFFC1
:101F3000DECF14F0DDCF15F014C0F3FF15C0F4FFB1
:101F4000020EE15C02E2E16AE552E16EE552E7CFA2
:101F5000D9FF1200D9CFE6FFE1CFD9FF110EE1265C
:101F6000FD0EDBCFDEFFDBCFDDFFFB0EDBCF08F0AE
:101F7000FC0EDBCF09F0020E08C0DBFF030E09C028
:101F8000DBFF020EDBCFE6FF030EDBCFE6FFDECF8B
:101F9000E6FFDDCFE6FF24EC0BF0E552E552E5521B
:101FA000E552060EF3CFDBFF070EDFCFDBFF020E9D
:101FB000DB50E76E080EE7CFDBFF090EDB6A0A0E87
:101FC000DB6A0B0EDB6A0C0EDB6A0D0EDB6A0E0E93
:101FD000DB6A0F0EDB6A100EDB6A88C0E9FF89C07E
:101FE000EAFF0B0EEA02F3CFEAFFE902F3CFE9FFC3
:101FF000F450EA26000EE926020EEA22060EDBCF96
:10200000EEFF070EDBCFEEFF080EDBCFEEFF090E73
:10201000DBCFEEFF0A0EDBCFEEFF0B0EDBCFEEFFCA
:102020000C0EDBCFEEFF0D0EDBCFEEFF0E0EDBCF87
:10203000EEFF0F0EDBCFEEFF100EDBCFEEFF88C002
:1020400014F089C015F00B0E1502F3CF15F0140231
:10205000F3CF14F0F4501526000E1426020E1522AC
:10206000040E14C0DBFF050E15C0DBFF0001882B3A
:10207000000E8923040EDBCF14F0050EDBCF15F024
:1020800014C0F3FF15C0F4FF110EE15C02E2E16A37
:10209000E552E16EE552E7CFD9FF1200D9CFE6FF56
:1020A000E1CFD9FFFE0EDB5003080BE2040E146EE5
:1020B000FE0EDBCFE7FF1450E75EFE0EE7CFDBFF3F
:0E20C000F1D7FE0EDB50E552E7CFD9FF12003C
:0220CE00006AA6
:1020D0000EAE70EF10F00D6C0E1EE86A0E22001EA0
:1020E00009AE78EF10F0086C091EE86A0922001E9C
:1020F00027EC11F009BE88EF10F000AE000C086C60
:10210000091EE86A0922046C051EE86A0522000C13
:1021100000BE7FEF10F00188FF0C09C013F008C06B
:1021200012F008500D02F4CF07F0F3CF06F009507B
:102130000E02F4CF09F0F3CF08F00D02F35007269A
:10214000F4500822E86A092212500E02F3500726C2
:10215000F4500822E86A09220EAEB3EF10F01250D4
:10216000085E1350095A13AE000C0D50085E0E5055
:10217000095A000C08C012F008500D02F4CF07F005
:10218000F3CF06F009500E02F4CF09F0F3CF08F0B8
:102190000D02F3500726F4500822E86A0922125073
:1021A0000E02F3500726F4500822E86A0922000CB8
:1021B000060EF66E000EF76E000EF86E00010900B6
:1021C000F550AA6F0900F550AB6F03E1AA6701D083
:1021D0003DD00900F550A56F0900F550A66F090024
:1021E000F550A76F09000900F550E96E0900F55098
:1021F000EA6E090009000900F550A86F0900F550C2
:10220000A96F09000900F6CFACF0F7CFADF0F8CF19
:10221000AEF0A5C0F6FFA6C0F7FFA7C0F8FF00010B
:10222000A85302E1A95307E00900F550EE6EA80794
:10223000F8E2A907F9D7ACC0F6FFADC0F7FFAEC012
:0E224000F8FF0001AA07000EAB5BBFD712002B
:02224E00056A1F
:10225000046A100EE76ED890083609360436053643
:102260000D50045C0E50055805E30D50045E0E50F1
:0A227000055A082AE72EF0D71200E5
:06227A00B00EF36E00EE51
:1022800000F00E0E01D81200EA6002D0EE6AFCD710
:0A229000F350E9601200EE6AFCD77B
:06229A001DEE00F02DEE28
:1022A00000F0F86A019CD8EC10F080EC11F00AEC18
:0622B00000F0FBD7120054
:0A22B600FF0EE3501C6E1B0E00D05B
:1022C00001D0200EE76EE72EFED71C2EFAD700D0E5
:0222D0001200FA
:0E22D200FF0EE350E84E1200000000D000D0D6
:0822E00000D0E82EFAD712002D
:0822E800C450176E166AC350C2
:0A22F0001610F36E17C0F4FF120081
:0622FA00C2909D9C120041
:022300001200C9
:0E2302000001010101FF0000000000000000CA
:102310000000000000000000000000000000FFFFBF
:10232000FFFF00000000000001000000000EF8F8B0
:10233000000000000000000000000000000000009D
:072340000000000000000096
:00000001FF
